:020000040000FA
:060000000217FC020A8A4F
:03001300020B4697
:03002B0002157348
:03003300020CD4E8
:03003B00020B9B1A
:03004B0002148715
:030053000209BFE0
:03005B000212DFAF
:0300630002130085
:03006B00020C7A0A
:03007B00020CABC9
:10008300020A1E010020FD000201FE05000000011E
:10009300DC1EEE1E0000F41EFA1E00000000001F0E
:1000A300181F1E1F241F0000000000000000010293
:1000B3000408102040801801FF0D01010401FEFF18
:1000C300000000000000000612FFFFFFFFFFFFFF1C
:1000D30001010104006E15000000E8030000FFFFAA
:1000E300C215E803000064006400B801A0BB0D0062
:1000F300A0BB0D00020200F8FF0705021E04010564
:100103001E02051E020A0A010108080310270280C5
:100113003E0102FEFFE8030A050001FFFF020A1485
:1001230001E002000000C503423F1A51123FF304ED
:10013300B53F0000803EFFFFFF0005030101FF9A6A
:100143003C00000000323C00000000FF000000FF04
:1001530000C082C083E9FA5407F8745C28F582E48E
:100163003418F583E0F879006022EAC4540F54038D
:10017300600814600914600D8012E5808002E59028
:100183005870078007E5A0586002790102027DC01C
:1001930082C08312028240047800800312033AE88B
:1001A300F4FCEB600814601214601C802BEA6005F9
:1001B300E842808023EC5280801EEA6005E842908A
:1001C3008016EC52908011E8C39420500BEA60052E
:1001D300E842A08003EC52A002027DC082C08312D9
:1001E300028240047800800312033AE8F4FCE870CA
:1001F3000302027DEB600814602C146050807BECDA
:1002030052F374016A601274026A601574046A70AE
:1002130003E8428FE842FD806153F7DFEC528F80A1
:10022300F343F72080F6EC52F474016A601274020F
:100233006A601574046A7003E842F6E842FE803A85
:1002430053F7BFEC52F680F343F74080F6E8C394CC
:10025300205027EC52F574016A601274026A60152B
:1002630074046A7003E842F7E842FF800D53F77F96
:10027300EC52F780F343F78080F6D083D08222E9F3
:10028300C4540F5403FB743F59C394302274F812BF
:100293000ED0E9C4540F5403FE743F59C394304045
:1002A300047800800312033AE8F4FBE86077EE6019
:1002B3000814602B14604E806CEB52F352FD7401F2
:1002C3006A600F74026A600F74046A7058E8428FA0
:1002D300805353F7DF800343F720EB528F8046EBC5
:1002E30052F452FE74016A600F74026A600F740460
:1002F3006A7032E842F6802D53F7BF800343F7401C
:10030300EB52F68020E8C39420501AEB44E0FB52F2
:10031300F552FF74016A601274026A601574046A0C
:100323007003E842F77F0102126053F77FEB52F745
:1003330080F343F78080F6E95407FC745C2CF58264
:10034300E43418F583E0F822C082C08312028240AD
:10035300047800800312033AE8F4FCE86038EB60A9
:100363000814601214601C802DEA6005E842FD80C9
:1003730025EC52FD8020EA6005E842FE8018EC522D
:10038300FE8013E8C39420500DEA6005E842FF8025
:100393000574E04C52FF02027DC082C083120282C8
:1003A30040047800800312033AE8F4FCE8603FEB72
:1003B30060081460151460228034EA6005E8428006
:1003C3008003EC5280E842FD8024EA6005E8429015
:1003D3008003EC5290E842FE8014E8C39420500E50
:1003E300EA6005E842A08003EC52A0E842FF020263
:1003F3007D743F59C394305042E9C4540F54036091
:1004030007146013146020227801E8F4FBEA6024E7
:1004130014601814601922740F59C394045004789B
:100423000280E7780480E3780880DFE8428C22E5E5
:100433008C586004EB528C22E8428C2212180C6018
:100443001D12181B7005191919801A121675701FC1
:1004530012169DC37003E66733191919400718185C
:10046300182208080874FFF618F618F618F6221270
:10047300169D60171218C1702192F01218CA7019D4
:10048300501720F014080808090909E7F61819E7B6
:10049300F61819E7F61819E7F6221218CA60E6E803
:1004A30069701F0808E62480F608E436F618547FBE
:1004B300B47F0CE654806007F6E418F618F62218A9
:1004C3001822E9C6CC08C6CD08C6CE08C6CFC0E000
:1004D300E8C0E0EAC0E0EBC0E009E9F809E7FA099F
:1004E300E7FBE6F918E6F8C3EC98ED99EE9AEBC250
:1004F300E7F5F0EFC2E795F0500E600CEBCFFBEAA7
:10050300CEFAE9CDF9E8CCF8EAA2E7D2E7FAEB3381
:10051300FB13F5F0EEA2E7D2E7FEEF33FFC5F013CE
:10052300A2E730E601B313C5F0C3C0E0C0F07F001B
:10053300C39BFB605E9418600F401D14601AD0E0EB
:1005430023F9D0E0F80206208AF0E9486003D2F0EC
:10055300E4AFF0FAF9F8803BEB30E40D89F0EA60A0
:1005630003D2F0E4AFF0F9CAF8EB30E30D88F0EF13
:100573006002D2F0AFF0E4CAC9F8EB54076014FB91
:10058300C3EA13FAE913F9E813F8EF135002D2E0C0
:10059300FFDBEDD0E0C0E030E739C3E49FFFF5F0C7
:1005A300EC98FC42F0ED99FD42F0EE9AFE42F0D059
:1005B300E0F9D0E0F8E5F0607AE923F9EE20E742CC
:1005C300D8028067C3EF33FFEC33FCED33FDEE332A
:1005D300FE80EAEC28FCED39FDEE3AFED0E023F98B
:1005E300D0E0F84002801BC3EE13FEED13FDEC13C5
:1005F300FCEF135002D2E0FF08B800067F7F74FFC0
:10060300802EEF3350178CF020F00260100CBC00EA
:100613000C0DBD00080EBE000408E860DFE933E8F6
:1006230013FFEE2313FE4F4D4C8008E95480FFE483
:10063300FEFDFCEE33EF33F47004FCFD7E80D0E06E
:10064300FBD0E0FAD0E0F8D0E0CFC618CEC618CD84
:10065300C618CCC6F92212180C70041818182212E6
:10066300181B700D74FFF61819F61819F61819F6F9
:1006730022E7548066F61218CA700F1218C170F080
:1006830014F608F608F608F680D11218C1700CF6B5
:1006930008F608768008E6447F80EC1216A0700CFA
:1006A30012167860BFE65480F6E480BB12167870A9
:1006B3000519191980A5E869700C763F187680181A
:1006C300F618F6E8F922E6CDC0E018ECC0E0E63310
:1006D300CD33CDD313F6E719FCE7191933CC33C364
:1006E300947F400ECD9D502408E65480F6E418F61E
:1006F300800FF4043D14501408E6447FF618768006
:10070300E418F618F6D0E0FCD0E0FD22CCD313CCED
:10071300FD18E4C6CBC0E018E4C6CAC0E00808ED83
:1007230008C633E613F618E433C675F003C3CA9755
:10073300CA09CB97CB199C40047D08802EBD0003CA
:1007430002080216B6FF050606081618C3CA33CAFE
:10075300CB33CB33CA27CA09CB37CB193CC37D086C
:10076300803E187D0820E75CC633C6CA33CACB3344
:10077300CB33DDF1D5F0EB30E77BCA97CA09CB97D2
:100783004ACB199C406F4B7025E620E02180661808
:100793007D08C3CA97CA09CB97CB199CD3C633C666
:1007A300CA33CACB33CB3350C9DDE7D5F0E1D3E449
:1007B300C636C608C636C608C636C608C636C618FE
:1007C30018188031C3CA97CA09CB97CB199CB34079
:1007D30097C633C6CA33CACB33CB33DD34D5F02EF9
:1007E300C6A2E0C640C8CA27CA09CB37194A70BE99
:1007F300CB3CB480B90808E63308E633601F181809
:1008030018D0E0FAD0E0FBD0E0FCD0E0FD22187D68
:1008130008CA27CA09CB37CB193CD3808013F618F3
:10082300E4B67F11F618B6FF0EF618C60470D208A8
:1008330008768080CAF618F618F680C50012180CE0
:10084300604F12181B6012E7548066F6121675701B
:10085300111218C1703B090909F4F618F618F618B5
:10086300F62212169D70151218CA08080860EAE6E7
:10087300447FF618768018E4F618F6221218CA6038
:10088300161218C17012E4F608F608F608E654804A
:10089300F609090918181822EAC0E0EBC0E0ECC019
:1008A300E0EDC0E0E687F0A4FBACF008E687F0A437
:1008B3002CFCE435F0FA1809E687F0A42C4B60020F
:1008C3007401CA35F0FCE433FB09E687F0D2F7A4E0
:1008D3002CCB35F0FC1908E687F0A42BCC35F0FBC4
:1008E300E433FD0819E687F0D2E7A42C4ACB35F0B0
:1008F300CD3400FC09E687F0D2E7A42DCC35F0FD1A
:10090300E433FA0918E687F0D2F7A42CCD35F0CA00
:100913003400FC08E687F0D2E7D2F7A42ACC35F0FE
:100923007A7E20E70B0ACB33CBCD33CDCC33CC331C
:10093300CB3350147004ED30E00ED2F1E4CD3DCD55
:10094300CC3CCC3B5005DA05C2F1EB547FC63308EF
:10095300E63392F0FBE73309E733C39A502D2B704C
:10096300190C0D4C4D70151806E608C333700D2095
:10097300F10AA2F013F6E418800B4024E4F630F0F9
:1009830002768018F618F618F68024D33B1450101C
:1009930074FFA2F013F6187680E418F618F6800FA9
:1009A300A2F013F618E63303F618ECF618EDF6D0BA
:1009B300E0FDD0E0FCD0E0FBD0E0FA22C0E074F12F
:1009C300120F36A2AFE433F509D2AF85A708AFA162
:1009D300EF5508FE74105E6006121BBE75A1EF741E
:1009E300085E6008121BC475A1F78024EFA2E09291
:1009F300F0E508A2E082F05017906198E0F89005C6
:100A03006CE0C398A2D265D0335002E8F075A1FE22
:100A1300E509A2E092AF7F02020F95C0E074F212E3
:100A23000F36A2AFE433FED2AF9061A4E0F8759B1A
:100A330000E59158540860087591F7121C0C802347
:100A4300E59158541060087591EF121C128014E55B
:100A530091A2E092F0E8A2E082F05007E0C2E0F059
:100A6300121D689061A3E0F8E5E9585404600E1282
:100A73001D3E75E9FB906193E0A2E640F2EEA2E031
:100A830092AF7F01020F95C0E074F2120F36A2AF4E
:100A9300E433FED2AF9061A5E0F8E5BF585404609B
:100AA3000675BFFB121D8080D4C3E498F8E499F95E
:100AB300120AED8026C3E49AFAE49BFBE920E7E9F6
:100AC300120AEDE498F8E499F922C3E498F8E4995A
:100AD300F9120AEDE498F8E499F9C3E49AFAE49B6D
:100AE300FB22EB20E7CFE920E7E0B90010BB0008C9
:100AF300E88AF084F8AAF022E4FBC8FA22EB702219
:100B03007B10C833C8C933C9335007C39AC3DBF258
:100B130080069A50012ADBEAC833F4C8C933F4C902
:100B2300FA2275F008E4C833C8C933C933C99AC96E
:100B33009B5004C92AC93BD5F0ECFBC833F4C8E485
:100B4300C9FA22C0E0C0D0E8C0E0E9C0E0C082C07A
:100B530083A8C1E8C0E09004D9E0F8745828F5826E
:100B6300E43404F583D0E0F09004D8E0F8A3E0681F
:100B73007006E5959004DBF09004D9E004F0C3948B
:100B8300804002E4F0A374C6F0D083D082D0E0F9B1
:100B9300D0E0F8D0D0D0E032C0E0C0D0E8C0E0E987
:100BA300C0E0C082C08390055CE0F8A3E0687008F1
:100BB300539AFBA374018022C2E990055CE0F874A8
:100BC3000128F074DC28F582E43404F583E0F5C1F0
:100BD30090055CE0C394804002E4F080AC120C2BDF
:100BE30030F039120C708034120C2B20F01430E7E3
:100BF3002B74FFFCFBFA747F8022E4FCFBFA748005
:100C0300801AB48008BC00F2BB00EF800F50EBF9F0
:100C1300E4C39AFAE49BFBE49CFCE499C6CC18C6B3
:100C2300CB18C6CA18C6F922E4C9C608CAC608CB77
:100C3300C6D3330308CCC63392F0C3947F402E94BB
:100C4300184019C9B90704CACBCC225025C309CA15
:100C530033CACB33CBCC33CC33D9F422F4600DC9B4
:100C6300CCC313CB13CBCA13CAD9F6CC22E4FCFBF7
:100C7300FA2214FCFBFA22C0E074F2120F36A2AF80
:100C8300E433FED2AF900712E05589600FE589FA8D
:100C9300790012203E900712E0F45289C2C5EEA2F9
:100CA300E092AF7F01020F95C0E074F2120F36A2FB
:100CB300AFE433FED2AF900713E0558A600FE58AA5
:100CC300FA790112203E900713E0F4528AC2EB80B6
:100CD300CDC0E074F2120F36A2AFE433FED2AF9070
:100CE3000714E0558B600FE58BFA790212203E90D2
:100CF3000714E0F4528BC2E880A4080808EAC0E0B5
:100D0300EBC0E086F0E7A4FA180986F0E7A42AFA14
:100D1300180986F0E7A42AFA180986F0E7A42AFA44
:100D23001986F0E7A4FBE5F02AFA190886F0E7A490
:100D33002BFBE5F03AFA190886F0E7A42BFBE5F064
:100D43003AFA18180986F0E7A4C5F02BFBE43AFA3F
:100D53001908E7C5F0C6A426F6E5F03BFBE43AFA2A
:100D63001886F0E7A4F6E5F00826F6E43B08F6E477
:100D73003A08F6D0E0FBD0E0FA22080808E630E7AC
:100D8300111216D9120D95080808C64480C6181802
:100D93001822181818E9799EC608CAC608CBC608CF
:100DA300CCC6C370207996CACBCC7019798ECBCCC4
:100DB30070137986CC700EF9802ACA33CACB33CB31
:100DC300CC33CC331930E7F2CCCBCA335014700494
:100DD300EA30E00DE4CA3ACACB3BCBCC3CCC500260
:100DE30009C3E913C6CC182313C6CB18C6CA18C641
:100DF300F922E4CFC0E0E4CEC0E0E4CDC0E0E4CC2F
:100E0300C0E075F020E626F608E633F608E633F68A
:100E130008E633F6181818EC33FCED33FDEE33FE19
:100E2300EF33FFC3EC9709ED9709EE9709EF971995
:100E33001919400FFFEC97FC09ED97FD09EE97FE9A
:100E4300191906D5F0BFECF709EDF709EEF709EF2D
:100E5300F7191919D0E0FCD0E0FDD0E0FED0E0FF97
:100E6300222518C582C0E0E51934FFC583C0E0E53B
:100E730018C3958224F810AF0885831985821880DA
:100E830008858319858218D2AFCEF0A3E520F0A39D
:100E93007808E608F0A3DEFAEFF0A3E58124FAF878
:100EA300E608F0A3E608F0A3E608F0A30808E608BE
:100EB300F0A3E608F0A315811581D0E0FED0E0F899
:100EC300158115811581E8C0E0EEC0E0222518C523
:100ED30082C0E0E51934FFC583C0E0E518C39582FD
:100EE30024F910AF08858319858218800885831932
:100EF300858218D2AFCEF0A3E520F0A37808E608E8
:100F0300F0A3DEFAEFF0A3E58124FBF8E608F0A3F3
:100F1300E608F0A30808E608F0A3E608F0A31581A5
:100F23001581D0E0FED0E0F815811581E8C0E0EE30
:100F3300C0E022C0D02518C582C0E0E51934FFC542
:100F430083C0E0E518C3958224F310AF08858319A5
:100F53008582188008858319858218D2AFC8F0A3CB
:100F6300E9F0A3EAF0A3EBF0A37908E709F0A3D82B
:100F7300FAECF0A3EDF0A3EEF0A3EFF0A3D0E0F0D2
:100F8300A3D0E0F0A3D0E0F0A3E520F0A3E5F0F0D8
:100F9300A322851983851882E0C0E0A3E0F9A3E0CA
:100FA300FAA3E0FBA37808E0F608A3DFFAE0FCA3CA
:100FB300E0FDA3E0FEA3E0FFA3E0C0E0A3E0C0E008
:100FC300A3E0F5D0A3E0F520A3E0A3F5F010AF086C
:100FD3008583198582188008858319858218D2AF85
:100FE300D082D083D0E0F8D0E0321216DC18181883
:100FF300120DF51217AB191919221217AB1919197A
:10100300080808E618181820E7E0120DF51216DC98
:1010130018181822090909E719191920E7DC080823
:1010230008E618181820E703020DF51216DC181845
:1010330018120DF51216DC1818181217AB19191916
:10104300221218ACB90003021083E4900401783132
:1010530079158002F0A3D8FCD9FA7A317B18900075
:101063008678CF79018015E493A3AD82AE838A821B
:101073008B83F0A3AA82AB838D828E83D8E9D9E7D1
:1010830075827F75838B7407121504758236758399
:10109300377400121504E4731075F0108E1A8F1B49
:1010A30085821F85831E851882851983E0CEA3E080
:1010B300CF851F82851E83EBC9EAC8EDCBECCAC37B
:1010C300E833C8E933C9EA33CAEB33CBC3EA9EF545
:1010D3001DEB9FF51CB35004AB1CAA1DEC33CCEDE8
:1010E30033CDD5F0DAAE1AAF1B2212180C601C12E6
:1010F300181B60171218CA70071218C17001D32287
:10110300C0D01218C17006D0D0B322C32233D0D0BE
:10111300501430E0F6C3E7960809E7960809E79606
:101123000809E796B32220E0D5E6970809E6970871
:1011330009E6970809E697B322D083D082ECC0E092
:10114300EDC0E0E493A3FCE493A3FDED4C600D122A
:1011530012A0EC24FFFCED34FFFD80EFE493A3FC2D
:10116300E493A3FDED4C600D1213A7EC24FFFCEDFB
:1011730034FFFD80EFD0E0FDD0E0FCE493A3C0E0BA
:10118300E493C0E02212180C601B12181B601612A5
:1011930018CA70071218C1600CB322C0D01218C14C
:1011A3007005D0D022C32233D0D0501330E0EBC32C
:1011B300E7960809E7960809E7960809E7962220C3
:1011C300E0E4E6970809E6970809E6970809E69731
:1011D30022D083D082E9C0E0E493A3C386F0C5F0B4
:1011E30095F0F908E493A386F0C5F095F0700BE44D
:1011F30093A3C3994005E9048002A3E475F002A414
:101203002582F582E5F03583F583D0E0F9E493A3F5
:10121300C0E0E493C0E022851983851882E0A3FE31
:10122300E0A3F5207808E0A3F608DFFAE0A3FFE0E7
:10123300A3C0E0E0A3C0E0E0A3C0E0E0A3C0E0E01F
:10124300A3C0E010AF0885821885831980088582C2
:1012530018858319D2AFD083D08202150A851983EA
:10126300851882E0A3FEE0A3F5207808E0A3F60842
:10127300DFFAE0A3FFE0A3C0E0E0A3C0E0E0A3C087
:10128300E0E0A3C0E010AF088582188583198008C9
:10129300858218858319D2AFD083D08222C0E0C360
:1012A300E49396087401939618400FE493667008CC
:1012B30008740193661870007019A3A3C3E493968E
:1012C300087401939618A3A3400DD0E0D0E0D0E0BA
:1012D300021178A3A3A3A3A3A3D0E022C0E074F2D6
:1012E300120F36C2D9901879E0C39400A2D265D008
:1012F300334005E0F912241C7F01020F95C0E0740E
:10130300F2120F36C2DC90187BE0F9C39400A2D22C
:1013130065D033400312241C80DE740480047402FD
:101323008000CCC0E0EDC0E0E518C39CCCAD195003
:10133300011D10AF068C188D1980068C188D19D2DB
:10134300AF121466D0E0FDD0E0FC2274028000CC22
:10135300C0E0EDC0E0E518C39CCCAD1950011D10F1
:10136300AF068C188D1980068C188D19D2AF121404
:1013730022D0E0FDD0E0FC2212180C602512181BCD
:1013830060201218CA70030218C1080808E76670C3
:10139300101819E766700A1819E76670041819E738
:1013A3006622F422C0E0C0F088F0E4936670080877
:1013B30074019366187000A8F0A3A3700BD0F0D04B
:1013C300E0D0E0D0E0021178A3A3D0F0D0E022D0A7
:1013D30083D082CCC0E0E493A360061214E51470BA
:1013E300FAE493A3600612160A1470FAD0E0FCE440
:1013F30093A3C0E0E493C0E022C008C3E096F508DD
:1014030008A3E096420808A3E096420808A3E096E2
:101413004208A2D265D033E5087001D3D00822CAAE
:10142300C0E0E493A3C582CCC582C583CDC583F058
:10143300A3C582CCC582C583CDC583DAE5D0E0CA16
:1014430022A2E792D65002F40430F70663F0FF05B8
:10145300F0B3400384800384F40430D60563F0FFC3
:1014630005F022CAC0E0E0A3C582CCC582C583CD06
:10147300C583F0A3C582CCC582C583CDC583DAE617
:10148300D0E0CA22C0E0C0D0C082C08375AF009054
:101493000751E02401F0A3E03400F0D083D082D0E0
:1014A300D0D0E0327009080808226016181818C650
:1014B300C333C608C633C608C633C608C633C6D543
:1014C300E0EA22C008C3E096F50808A3E0964208C4
:1014D30008A3E096420808A3E09645087001D3D01C
:1014E3000822C0E0E493A3D39C5010E493A3C39CCD
:1014F300400AD0E0D0E0D0E00213EFA3A3A3D0E0F2
:1015030022C09FF59FE473D09F22D083D082C09FD7
:10151300E493C0E0740193C0E0740293F59F2274D6
:1015230004800A74038006740280027401C0E0F42C
:101533000412153DD0E0121857222518F58210AF7A
:1015430008F518400C15198008F51840021519D232
:10155300AF8519832200C0D0251810AF08F51850A5
:101563000C05198008F51850020519D2AFD0D02206
:10157300C0E0C0D0E8C0E0A8A8D2AFC2C7E8A2E7E5
:1015830092AFD0E0F8D0D0D0E032BB0102E722C066
:1015930082C08389828A83BB0003E08002E493D004
:1015A30083D082226017080808C6A2E713C618C6AC
:1015B30013C618C613C618C613C6D5E0E9226016AB
:1015C300080808C6C313C618C613C618C613C61818
:1015D300C613C6D5E0EA222518F8E43519F9222501
:1015E30018FAE43519FB222518FCE43519FD22C34A
:1015F300E0C696F608A3E0C696F608A3E0C696F6FC
:1016030008A3E0C696F622C0E0E493A36C7009D069
:10161300E0D0E0D0E00213EFA3A3D0E0222518101E
:10162300AF08F518400C15198008F5184002151974
:10163300D2AF22C3E09608A3E09608A3E09608A3DE
:10164300E096A2D265D03322E76670100809E766F8
:10165300700A0809E76670040809E76622E0667005
:101663001008A3E066700A08A3E066700408A3E00C
:101673006622181818E60846087009E62608700559
:10168300E633F4220822C3E4939608740193960880
:1016930074029396087403939622191919E709475C
:1016A300097009E727097005E733F4220922C3E02B
:1016B30096F008A3E096F008A3E096F008A3E0965E
:1016C300F022C3E697F60809E697F60809E697F6C7
:1016D3000809E697F622181818E4C396F608E49664
:1016E300F608E496F608E496F622E026F608A3E068
:1016F30036F608A3E036F608A3E036F622E627F628
:101703000809E637F60809E637F60809E637F62248
:10171300E493F608740193F608740293F6087403CD
:1017230093F622E657F60809E657F60809E657F650
:101733000809E657F622E056F608A3E056F608A392
:10174300E056F608A3E056F622E647F60809E64710
:10175300F60809E647F60809E647F6227004226010
:101763000D18C6C333C608C633C6D5E0F41822E63F
:1017730067F60809E667F60809E667F60809E66703
:10178300F622E026F008A3E036F008A3E036F008DE
:10179300A3E036F022E056F008A3E056F008A3E0F9
:1017A30056F008A3E056F022E4C397F709E497F74D
:1017B30009E497F709E497F722600D08C6A2E71337
:1017C300C618C613C6D5E0F322C6F4C608C6F4C6C7
:1017D30008C6F4C608C6F4C622C3E09608A3E0967A
:1017E30008A3E09608A3E09622C3E7960809E796C4
:1017F3000809E7960809E7962275D00075813F75B9
:10180300180175190400021044E6084608C313467C
:1018130008336002E633F422E7094709C313470993
:10182300336002E733F422600C08C6C313C618C63C
:1018330013C6D5E0F422E6F008A3E6F008A3E6F029
:1018430008A3E6F022E0F608A3E0F608A3E0F60812
:10185300A3E0F622CAC0E0E6F0A308DAFAD0E0FA81
:1018630022E0FCA3E0FDA3E0FEA3E0FF22EAF0A355
:10187300EBF0A3ECF0A3EDF022E0FAA3E0FBA3E08E
:10188300FCA3E0FD22E8F0A3E9F0A3EAF0A3EBF068
:1018930022ECF0A3EDF0A3EEF0A3EFF022E0F8A327
:1018A300E0F9A3E0FAA3E0FB22E5C754F84401F50D
:1018B300C77901222518F582E43519F58322E72734
:1018C30019471947194722E626184618461846228B
:1018D300C2AF75D69F0200002212150D32C1051248
:1018E300150D98C20512150D53A80712150DE7948F
:1018F3000512150D39950512150D95950512150D42
:1019030023960512150D7F960512150DB99905122B
:10191300150DE79B0512150D0F9D0512150D78F991
:101923000612150DE2F90612150D03FA0612150D2E
:1019330041FA0612150D86FA0612150DACFA0612B7
:10194300150DB5FA0612150D63FB0612150DC7FB2F
:101953000612150D457F0012150DD9A70712150D97
:10196300F4A70712150DCDC70412150DACC8041248
:10197300150DACC90412150D80CA0412150D62CDE4
:101983000412150DF5CE0412150DADCF0412150D6D
:10199300BED00412150D49D20412150D6CE70512C1
:1019A300150D7AE70512150D8BE80512150D3BE9A8
:1019B3000512150DC3EA0512150D83ED0512150D5C
:1019C300BAF30612150D44F40612150D4FF506125F
:1019D300150D6BF50612150DC49E0712150DD59E38
:1019E3000712150D9A9F0712150DA99F0712150DC2
:1019F300B49F0712150DFC7F0012150DEDFF0412A5
:101A0300150DB4A30712150DC4A30712150DD9A301
:101A13000712150D3FA40712150DCC9F0712150DC4
:101A23004FA00712150DB5A00712150D7F890712D8
:101A3300150DBA890712150D168A0712150D6E8A30
:101A43000712150DF58A0712150D318B0712150DA7
:101A53002CA90712150D3CA90712150D2FE006122C
:101A6300150D92E00612150DE1E00612150D0EE1BB
:101A73000612150D64E10612150D1BA80712150DAC
:101A830095820712150DDF820712150D7583071254
:101A9300150DFB830712150D2C840712150D4484B5
:101AA3000712150DB8840712150DCE840712150DF4
:101AB300E1840712150DEB840712150D5FD3041291
:101AC300150DABD80412150DDDD80412150D09D967
:101AD3000412150DB1D90412150DA7DC0412150D4E
:101AE300DAF30412150D46F40412150DF6F404127C
:101AF300150DC1F50412150D17F70412150D05F890
:101B03000412150D0CF90412150DECFA0412150D3F
:101B13001FFB0412150D89FB0412150DB0FB0412F3
:101B2300150D16FD0412150D88FD0412150DBDFDCE
:101B33000412150DD1FD0412150D47FE0412150DE7
:101B430075B10512150D1BB40512150D83B50512DC
:101B5300150D0AB80512150D5DB80612150D89B8D5
:101B63000612150DFABA0612150D3ABB0612150D1B
:101B73007ABB0612150D8EBB0612150DA7BB0612F6
:101B8300150D98BC0612150D3DBD0612150D51BD60
:101B93000612150D29970712150D4D970712150DEE
:101BA30066970712150D98970712150DC897071218
:101BB300150DF5970712150D57980712150D669811
:101BC3000712150D70980712150D7D980712150D44
:101BD3004EFC0612150D6EFC0612150DADFC061219
:101BE300150DC8FC0612150DE7FC0612150D4DFD6B
:101BF3000612150D56FD0612150DB3FD0612150D31
:101C0300D7FD0612150D98FE0612150DA5FE061238
:101C1300150DB6FE0612150DC4A60712150DDCA68A
:101C23000712150D08A70712150D70C20612150D20
:101C3300C4C30612150DD2C30612150DE5C3061251
:101C4300150DFAC30612150D0FC40612150D22C485
:101C53000612150D96C40612150DFBC40612150DBA
:101C63009DC50612150D61C60612150D71C6061225
:101C7300150D80C60612150D85A20712150DA9A212
:101C83000712150DD1A20712150DF9A20712150D92
:101C93005C870712150D83870712150DA18707129D
:101CA300150D14880712150DB3F00612150DCCF09F
:101CB3000612150DD8F00612150DECF00612150DCF
:101CC3000AF10612150D14F10612150D1EF1061276
:101CD300150D31F10612150DBBF10612150D30F27B
:101CE3000612150D64F20612150DB2F20612150D49
:101CF300FFF20612150D1AF30612150D24F3061240
:101D0300150D4AF30612150DAFF30612150DCEA1EC
:101D13000712150DF0A10712150D12A90712150DC3
:101D2300F7A70512150D21A80512150D3EA80512DA
:101D3300150D51A80512150D67A80512150DC5A897
:101D43000512150DFDA80512150DF5AC0512150D9F
:101D53003AAE0512150D6DAE0512150DD0AE051276
:101D6300150D49B00512150D71B00512150D86B08C
:101D73000512150D96B00512150DDAB00512150DE5
:101D830035B10512150D45B10512150D749C0712D9
:101D9300150D8E9C0712150DB69C0712150DCF9CC1
:101DA3000712150DF39C0712150D119D0712150D42
:101DB300289D0712150D569D0712150D719D0712CB
:101DC300150D95A70712150D60FC0512150D70FC76
:101DD3000512150D75FD0512150DA7FD0512150D3F
:101DE300CDFD0512150DF0FD0512150D07FE0512AB
:101DF300150D41FE0512150DA6FE0512150DE8FE83
:101E03000512150D27FF0512150D58FF0512150DA7
:101E13008FFF0512150DA4F50512150D7AF605129F
:101E2300150DA5F60512150DC2F60512150DBDF714
:101E33000512150DFFF70512150D6DF80512150D99
:101E4300BFF80512150D2EF90512150D65FA0512C9
:101E5300150D62FB0512150D01D80612150D56D886
:101E63000612150DD6D80612150DE9D80612150D52
:101E730010D90612150DB3D90612150D94DA0612F0
:101E8300150D28D60512150D53D60512150D1ED79F
:101E93000512150D65D70512150DF6D70512150D8B
:101EA3006FDB0512150D27DD0512150D0D9A0312B3
:101EB300150D4D9A0312150D4C9C0312150D729CB2
:101EC3000312150D5D9F0312150D99A00312150D35
:101ED30003A40312150D6DA40312150D07A5031218
:101EE300150D5AA50312150DC2A50312150D12A641
:101EF3000312150D44A60312150D47A60312150D63
:101F030057A60312150D69A60312150DB4A60312E5
:101F1300150D71A80312150DDEA80312150D31A9B5
:101F23000312150DCDA90312150D59AA0312150D90
:101F33005DAC0312150DFCAD0312150DC3AF0312F7
:101F4300150DA7B00312150D5BB20312150D5294B4
:101F53000712150D6C940712150DAE940712150D8B
:101F6300E1940712150DFB940712150D1495071232
:101F7300150D56950712150D8B950712150D6292C7
:101F83000612150D93920612150DE7920612150D02
:101F9300B7930612150DE9930612150D1694061242
:101FA300150D67940612150D91940612150DB5942F
:101FB3000612150DDB940612150D5D950612150D0F
:101FC300E7950612150D18960612150D5E96061264
:101FD300150D7C960612150DA0960612150DC096CA
:101FE3000612150DF6960612150D55970612150DC8
:101FF30077970612150DD6970612150DE59706125B
:10200300150D1E980612150D37CD0512150D71CD40
:102013000512150DB0CE0512150DDCCF0512150DE9
:1020230001D60512150D2D980612150D34990612B9
:10203300150D75990612150DE9990612150DE4FE95
:102043000612150D55FF0612150DBAFF0612150DD2
:10205300808A0512150D9F8B0512150DAD8C051287
:10206300150DF48D0512150D4C8E0512150D918E5F
:102073000512150D9F8E0512150DCF8E0512150D28
:10208300658F0512150DC1900512150DCD91051221
:10209300150D65930512150DDC940512150D5FE7FB
:1020A3000612150DBAE70612150DF3E70612150D04
:1020B300DBE90612150D40B30612150D85B30612A2
:1020C300150DBBB30612150DE2B40612150D87B636
:1020D3000612150DF4B60612150D3FB80612150DAE
:1020E300EBF50312150D08F70312150D7EF7031216
:1020F300150D77F80312150DC3F80312150D3EFCE9
:102103000312150D1EFD0312150D60FD0312150DAF
:10211300A1FD0312150DF6FD0312150DD6FE0312D4
:10212300150DC5950712150D02960712150D31965B
:102133000712150D45960712150DA2FB0112150D79
:10214300B4FC0112150D97FD0112150DB8FD011216
:10215300150D81FE0112150D23FF0112150D54FFFC
:102163000112150DD4FF0112150D00800612150D75
:1021730062800612150DF6800612150D8582061271
:10218300150DC6850612150DDC850612150D8798EB
:102193000712150D99980712150DAD990712150D14
:1021A300B0990712150D2E9B0712150D649B07128C
:1021B300150D7E9B0712150DC09B0712150DD09BA5
:1021C3000712150D6A9C0712150DA9EE0512150DC0
:1021D300B3EE0512150DEDEE0512150D56EF0512B2
:1021E300150D73EF0512150D15F00512150D1EF0E3
:1021F3000512150D63F00512150D8CF00512150D62
:1022030099F00512150D0AF10512150D95F1051238
:10221300150DE3F10512150D21F20512150D86F2C8
:102223000512150DA9F20512150D20F30512150D52
:1022330077F30512150DB2F30512150DE7F3051229
:10224300150DF9F30512150D0BF40512150D2AF4EE
:102253000512150D33F40512150DEEF40512150DC7
:102263003AF50512150D78F50512150D65BD061223
:10227300150DA5BE0612150DC8BE0612150DD9BE45
:102283000612150DD8C00612150DF8C00612150D4D
:10229300F7A80712150DA9ED0612150DEDED06129F
:1022A300150D35EE0612150D1BF00612150DAAF0CD
:1022B3000612150D47A50712150D00800412150D02
:1022C30024810412150D5E810412150D0883041276
:1022D300150D32830412150DA7850412150DE7851C
:1022E3000412150D7D870412150D1A880412150D9D
:1022F3006C880412150D0F890412150D47890412F9
:10230300150D89890412150DF88A0412150D468CD2
:102313000412150D778E0412150DA58E0412150DDA
:10232300CC8E0412150DD58E0412150D258F0412B3
:10233300150DB78F0412150DE6920412150D69934E
:102343000412150DE7FF0512150D2BDC0612150DF2
:1023530041DC0612150DE5DC0612150D24DD06120F
:10236300150D41DD0612150D72DD0612150DBFDDCB
:102373000612150DF2DD0612150D2DDE0612150DD2
:1023830022E00612150D9E860612150D44880612CC
:10239300150D85890612150D9D890612150D27CB7E
:1023A3000612150D5ECC0612150DBDCD0612150DC8
:1023B30017C40512150D43C40512150D7DC405126E
:1023C300150D43C70512150D9BC70512150DE5C75E
:1023D3000512150D09C80512150D86C90512150D2F
:1023E300E3C90512150D40CC0512150DEADE0512E1
:1023F300150D11E00512150D10E10512150D66E21C
:102403000512150D8BE30512150D65E40512150D67
:10241300658D0712150D138E0712150DA76D00128A
:10242300150D6C6E0012150D776E0012150D286FC9
:102433000012150D876F0012150D7E710012150D18
:10244300EE710012150DF3730012150D2C740012AA
:10245300150DD5760012150DFD760012150D7F773B
:102463000012150DFA770012150D84790012150D5F
:10247300D9790012150D577A0012150D237F00121A
:10248300150D7BA30612150DA2A30612150DFDA5AE
:102493000612150D24A60612150D79A60612150DA2
:1024A300ABA70612150D27A80612150D00800712FB
:1024B300150D18800712150D63810712150D6A811A
:1024C3000712150D93810712150DCEA00712150DD6
:1024D3002DA10712150D6BA10712150DACA1071243
:1024E300150DEFA80612150D15A90612150D55AAFF
:1024F3000612150D4AAB0612150D71AB0612150D1A
:102503000AAC0612150D5EAC0612150D79AD061256
:10251300150D818C0612150D238D0612150D438E94
:102523000612150D958F0612150D49910612150DFC
:102533005ADE0412150DAEDE0412150DD8DF041297
:10254300150D04E10412150DF2E10412150D8EE4CC
:102553000412150D45E60412150D90E60412150D2F
:102563009EE80412150D3AFC0212150D8DFC0212A1
:10257300150D10FD0212150D9CFF0212150DDD99AC
:102583000712150D579A0712150D729A0712150D9A
:10259300408F0712150D55900712150DBD900712A8
:1025A300150D14910712150D5F910712150DAF91BB
:1025B3000712150DCA910712150DCB920712150DAF
:1025C30026930712150D22940712150DFE84071288
:1025D300150D67850712150DDD850712150D058687
:1025E3000712150DB6930412150D27940412150D39
:1025F3008E940412150D12950412150D0D960412E6
:10260300150D3C980412150D2B990412150D96996E
:102613000412150DD4990412150D1A9B0412150DED
:10262300D19B0412150D1A9C0412150D849C0412DF
:10263300150DD59C0412150D659E0412150D9F9E54
:102643000412150DD0A40712150D1AA50712150DA6
:10265300D99D0612150D369E0612150D0E9F0612F4
:10266300150D7D9F0612150DA19F0612150D88A04D
:102673000612150DE8A00612150D99A10612150DE7
:1026830010A20612150D78A80712150D8BA80712B4
:10269300150DA49D0712150DB39D0712150D139E5D
:1026A3000712150D9CA80712150DA2A80712150DE8
:1026B300A8A80712150D29BC0412150D94BC041209
:1026C300150D6DBD0412150DC8BE0412150D37BFCF
:1026D3000412150DE5BF0412150DBEC00412150D2D
:1026E300ADC10412150D00C30412150D77C50412F4
:1026F300150DF23F0012150D2CBA0312150D604093
:102703000012150D6A400012150DFD400012150D43
:1027130039410012150DF5410012150D0842001242
:10272300150D58420012150DE7420012150D1D43F9
:102733000012150D9F430012150D4E450012150D85
:1027430022470012150D08480012150D5A490012B0
:10275300150DB04B0012150D194D0012150DB64D88
:102763000012150D5E520012150D4C530012150D7B
:10277300EA530012150D16540012150DB25400122F
:10278300150DC7540012150DEB540012150DC8C0DA
:102793000512150D6E550012150D98550012150DE5
:1027A30015570012150D36570012150DBC570012A0
:1027B300150D62580012150DA9580012150D1C595C
:1027C3000012150DA8590012150D0C5A0012150D03
:1027D3006C5A0012150D025B0012150D7D5B001281
:1027E300150DB05B0012150D125C0012150D745D12
:1027F3000012150DE45D0012150D935E0012150D08
:10280300E95F0012150D81600012150DED600012D5
:10281300150D30630012150DBC640012150DE7642D
:102823000012150DCD660012150D63680012150D0B
:102833006C690012150DC0A10412150D77A20412C4
:10284300150D7EA30412150DFCA30412150D3EA550
:102853000412150D5FA50412150D17A60412150D0C
:10286300C2A60412150DA2AA0412150DBEAC0412C1
:10287300150D25AE0412150D51A70712150D008075
:102883000312150D58800312150DDE800312150D6A
:10289300F0810312150D3D820312150D23830312DC
:1028A300150D3A830312150D8C830312150DC48382
:1028B3000312150DD7830312150D2D840312150D65
:1028C30086840312150D9E840312150D0E870312C1
:1028D300150DA5870312150DCF870312150D078854
:1028E3000312150D2D8A0312150D738A0312150D8C
:1028F300BD8A0312150D918B0312150DD28B031292
:10290300150DF58B0312150D3C8C0312150D5E8C02
:102913000312150DDF8C0312150D6C8D0312150DAB
:10292300C68D0312150D0E8E0312150D838F031220
:10293300150DFF910312150D8C920312150DB8930B
:102943000312150DF3930312150DC0940312150D05
:1029530000950312150D03950312150D0D95031222
:10296300150D20950312150DA1950312150DD7957D
:102973000312150D03960312150D2A960312150D56
:102983004E960312150DE5960312150DFE960312CE
:10299300150D31970312150D51970312150D8E97CF
:1029A3000312150DC5970312150DC4980312150DC7
:1029B300F7990312150D49A40712150D55A4071213
:1029C300150D9BA40712150DFCFF0112150D38CC34
:1029D3000312150D5BCC0312150D32CD0312150D29
:1029E3007BCD0312150DD3CD0312150D2DCE03127E
:1029F300150D79CE0312150DEFCE0312150D7DCFF4
:102A03000312150DF5CF0312150D38D00312150D52
:102A130015D40312150D5CD60312150D8FD60312B0
:102A2300150D0DD70312150D92D70312150D6AD884
:102A33000312150D94D90312150D7FDA0312150D28
:102A43005CDB0312150D98DC0312150D3CDE03123B
:102A5300150DCEDE0312150DD5E00312150DABECEB
:102A63000212150D4BED0212150DB5ED0212150DE7
:102A73005CEE0212150DC0EE0212150DF3EF0212F9
:102A8300150D19F10212150D92F10212150D6AF3CB
:102A93000212150D0AF40212150DADF40212150DF2
:102AA3000CF50212150DC7F50212150D8DF7021262
:102AB300150D30F90212150DDCF90212150DF1FA9C
:102AC3000212150D65E10312150DDDE10312150D5B
:102AD30025E20312150D69E20312150DB2E203128A
:102AE300150DFCE20312150D31E30312150DAFE3CF
:102AF3000312150D09E40312150D62E50312150DFA
:102B0300EBE50312150D47E60312150D61E60312FB
:102B1300150D88E60312150DE0E60312150D4AE8BC
:102B23000312150D69E80312150D91E90312150D32
:102B33000EEA0312150D7BEA0312150DDDEA0312EB
:102B4300150D8DEB0312150D5FED0312150D4AEEF6
:102B53000312150D44EF0312150D4AF00312150D60
:102B630066F10312150D74F10312150D4DF20312E4
:102B7300150DEDF20312150D31F30312150D46F386
:102B83000312150D57F40312150DFAF40312150D64
:102B930052F50312150DAAF60612150DE3F70612E8
:102BA300150DA0F80612150D04F90612150D85EA88
:102BB3000612150DA0EA0612150DE4EA0612150D0C
:102BC3000AEB0612150D30EB0612150D48EB061233
:102BD300150DABEB0612150DC0EB0612150DE2EC4D
:102BE3000612150DEBEC0612150DF4EC0612150D7D
:102BF300FDEC0612150D07ED0612150D7FCF06121B
:102C0300150D5FD30612150D64D30612150D66D389
:102C13000612150DF28B0712150DBBA80712150D21
:102C2300B9A50712150D0BA70712150DD3FF021235
:102C3300150DCDD30612150D1EA30712150D48A3AE
:102C43000712150D61FE0412150DD6FF0312150DA3
:102C5300D9A80712150D1AA60712150D74A6071287
:102C6300150D24E40612150DB3D70112150D0AD85C
:102C73000112150D76D80112150D02D90112150D89
:102C8300B8D90112150D00DA0112150D19DA011266
:102C9300150D3CDA0112150D5EDA0112150D9CDAE1
:102CA3000112150DEBDA0112150D16DB0112150DCC
:102CB30074DB0112150D1BDC0112150DC3DC0112AF
:102CC300150D3FDD0112150D0CDE0112150D58DE39
:102CD3000112150DE0DE0112150D19DF0112150D9C
:102CE300AADF0112150DBBDF0112150D2DE0011234
:102CF300150DC6E00112150D30E10112150D20E28C
:102D03000112150D45E20112150D42E30112150DD5
:102D13004FE30112150D58E30112150D41E50112A0
:102D2300150D5DE60112150DEEE60112150D5FE7B7
:102D33000112150D39E90112150D04ED0112150DDE
:102D430018ED0112150D28ED0112150D32ED0112CA
:102D5300150D3BED0112150D44ED0112150D4EED50
:102D63000112150D7DED0112150DABED0112150DBF
:102D7300B6ED0112150DDAED0112150DFEED01127E
:102D8300150D70EE0112150DB9EE0112150DD5EEEC
:102D93000112150D46EF0112150D92EF0112150DDB
:102DA300DBEF0112150D19F00112150D9AF0011246
:102DB300150D65F20112150D04F30112150DCCF377
:102DC3000112150D58F60112150DADF60112150D70
:102DD300D5F60112150D08F80112150D4DF8011263
:102DE300150DA2F80112150D50F90112150DF5F983
:102DF3000112150D2AFA0112150DCAFA0112150D49
:102E030046FB0112150D8A860112150DBC860112AF
:102E1300150DF0860112150DA4880112150D788980
:102E23000112150DD7890112150DED8A0112150D29
:102E3300398B0112150DD68D0112150D4B90011210
:102E4300150D97910112150D2F920112150D3B923D
:102E53000112150D84920112150DB7920112150D71
:102E630043930112150D55940112150D96950112F8
:102E7300150D95960112150DBF960112150D2A9782
:102E83000112150D83970112150DF6970112150DF9
:102E93002C9A0112150DB29B0112150D9D9C011266
:102EA300150DEB9D0112150D23A00112150D1AA38B
:102EB3000112150D29A30112150DBDA30112150D44
:102EC30068A40112150DABA40112150DF4A401128F
:102ED300150D44A50112150DB1A50112150D1DA661
:102EE3000112150D39A60112150D68A60112150D53
:102EF300A7A60112150D8FA70112150D3EA80112E9
:102F0300150DB5AA0112150DE7AB0112150DB6ACDF
:102F13000112150D38AD0112150D84B10112150DF5
:102F2300B3B10112150D0EB20112150D41B201120A
:102F3300150D9CB20112150DB8B20112150D19B37E
:102F43000112150D69B30112150D18B40112150DF7
:102F5300DBB40112150DA3B50112150DEFB7011264
:102F6300150D7BB90112150DD2BA0112150DEEBB69
:102F73000112150DF1BB0112150D20BC0112150D27
:102F83000FBE0112150DD8BE0112150D19BF011286
:102F9300150D6FC00112150DE5C00112150D18C1F5
:102FA3000112150D7CC10112150D9DC30112150DE2
:102FB300FCC30112150DD2C40112150DE6C4011292
:102FC300150DFAC40112150D27C50112150D57C5AC
:102FD3000112150DFBC60112150DF8C70112150DCF
:102FE30046C80112150D6DC80112150D48C901120D
:102FF300150DEEC90112150D74CB0112150DBBCBC6
:103003000112150D28CC0112150D7DCD0112150DE0
:1030130026CE0112150D5ACE0112150D72CE0112D4
:10302300150D15CF0112150D91D10112150D39D3BF
:103033000112150D5DD30112150D7BD30112150D70
:1030430047D40112150D95D70112150D00800212F8
:10305300150D32800212150DB2840212150D018571
:103063000212150D47850212150DEA850212150D80
:103073004F860212150D93860212150DFA8702125E
:10308300150D26890212150D238D0212150DA28D21
:103093000212150DC88E0212150D2B8F0212150D7B
:1030A30077900212150D0F930212150D9C930212C5
:1030B300150DA6930212150DCE930212150D9694BB
:1030C3000212150D2B950212150D54950212150DB2
:1030D30081950212150DD6970212150DA3980212AF
:1030E300150DE2980212150D64990212150D0F9A2F
:1030F3000212150D419A0212150D8C9A0212150D2A
:10310300C59A0212150D149B0212150D709B021223
:10311300150DF29B0212150D579C0212150DCF9C33
:103123000212150D789E0212150D709F0212150DD5
:10313300B1A00212150D05A40212150D61A602120B
:10314300150D1AA70212150D62A70212150D43A938
:103153000212150D7EA90212150D87A90212150D73
:1031630090A90212150D9BA90212150DBAA90212FC
:10317300150D6DAA0212150DCAAA0212150DD4AAB5
:103183000212150DDEAA0212150D2AAB0212150D3D
:1031930072AB0212150D76AC0212150D0FAD0212B1
:1031A300150DD6AD0212150D00AF0212150D2BB081
:1031B3000212150D21B10212150D39B10212150DAE
:1031C3006DB10212150D8BB10212150DD3B102129E
:1031D300150D0CB20212150DC3B20212150D84B3F4
:1031E3000212150DF7B30212150D73B40212150D69
:1031F3000FB50212150D35B60212150DF1B60212F6
:10320300150D91B70212150D7EB80212150DD6B821
:103213000212150D9CB90212150DBFB90212150D3C
:10322300D4BA0212150D1FBB0212150D7BBB02127D
:10323300150DE3BB0212150D07BC0212150D2FBCB1
:103243000212150D74BC0212150D98BC0212150D55
:103253001CBD0212150D05BE0212150D4ABE021247
:10326300150D73BE0212150D11BF0212150D7CBF91
:103273000212150D8ABF0212150DB6BF0212150DEB
:1032830097C00212150D00800512150D3880051226
:10329300150D59800512150D9B800512150DFF8024
:1032A3000512150D09810512150D19810512150D4C
:1032B30050810512150DF9840512150DC1860512ED
:1032C300150DA5880512150D47890512150DD18910
:1032D3000512150D87C20212150DEBC20212150D50
:1032E30049C30212150D94C30212150DAFC3021286
:1032F300150DD6C30212150DF3C30212150DFFC32C
:103303000212150D90C50212150DA9C50212150D55
:1033130025C60212150D38C60212150D48C6021233
:10332300150DECC60212150D58C80212150D6BC906
:103333000212150D0BCA0212150D15CA0212150D34
:1033430094CA0212150DA5CA0212150DE4CA02127F
:10335300150D12CB0212150DDFCB0212150D36CC53
:103363000212150D6FCC0212150DC5CC0212150DEC
:10337300E3CC0212150D31CD0212150DFCCD021254
:10338300150D4ACE0212150D97CE0212150D1ACF46
:103393000212150D44CF0212150D7ACF0212150D2C
:1033A30089CF0212150DE8CF0212150D60D002125B
:1033B300150DA1D00212150DF1D00212150D1CD15D
:1033C3000212150D36D10212150D50D10212150D30
:1033D30025D20212150D2FD20212150D6AD2021236
:1033E300150D7AD20212150D83D20212150DD4D205
:1033F3000212150DE8D20212150D0AD40212150D90
:103403001FD40212150DB2D40212150D26D50212C5
:10341300150DCBD50212150DD6D50212150D36D7C3
:103423000212150D52D70212150D9ED70212150D59
:103433000CD80212150D3ED80212150D58D80212DF
:10344300150D9AD80212150DEDDA0212150D85DB52
:103453000212150DFCDB0212150D59DE0212150DB9
:1034630071DE0212150D74DE0212150D80DE0212DA
:10347300150D94DE0212150D9CDE0212150DD3DE1E
:103483000212150DC7DF0212150D51E00212150DC0
:10349300D3E00212150D53E10212150D2AE20212B6
:1034A300150D4CE20212150DE5E20212150D42E371
:1034B3000212150D45E30212150DB4E30212150DA8
:1034C30000E50212150D13E60212150D9EE6021217
:1034D300150DB1E70212150D76E80212150DA7E8D6
:1034E3000212150DCDE80212150DD6E80212150DC4
:1034F30005E90212150DB5E90212150D65EA02126E
:10350300150DD8EA0212150D7BEB0212150DEEEB29
:103513000212150D2DEC0212150D76EC0212150D8B
:1035230031B90312150D9CB80312150D4FB80312D0
:10353300150DCDB70312150D52B70312150DD2B6E3
:103543000312150D88B60312150D2CB60312150DB3
:10355300DBB50312150D9EB50312150D58B50312F5
:10356300150D1DB50312150D66C00512150DEFBE21
:103573000512150D13B50312150DF6B40312150D2F
:10358300B8BD0512150DB9BC0512150D1EB40312F5
:10359300150DA2B30312150D0AC90612150D30C875
:1035A3000612150DB6C70612150DB9C60612150D6E
:1035B30050BB0412150D76BA0412150DACB90412E2
:1035C300150D1BB80412150DE4B70412150DB6B78B
:1035D3000412150D6AB70412150DD3B60412150D96
:1035E30043B60412150D1DB60412150DD2B50412FF
:1035F300150D9CB50412150D1FB50412150DBAB4A3
:103603000412150D69B40412150D91B30412150DAE
:1036130001B30412150DB5B20412150D30B2041224
:10362300150DEBB10412150D70BC0512150DCFB1BC
:103633000412150DE7BA0512150DCDCA0312150DA7
:10364300A2C70312150D2AC50312150D18C30312C1
:10365300150DDCC20312150DD6C10312150D7EBF65
:103663000312150D77B00412150D49B00412150D90
:1036730016B00412150D9AAF0412150D0ABF0312EA
:10368300150D7EB10612150DE3AF0612150DF1AE41
:103693000612150D1FAE0612150DCFBD0312150D23
:1036A3008FF30412150D51550012150D36F3041244
:1036B300150D01F30412150DCCF20412150D98F239
:1036C3000412150D2BF20412150D13F20412150D2D
:1036D300EEF10412150DBFEE0412150D92EC041257
:1036E300150D92EA0412150D18EA0412150DC9E915
:1036F3000412150D83E90412150D25E90412150DA5
:1037030019A60512150D6CA50512150D8EBD031214
:10371300150D7DA40512150DE1A20512150DA4A02A
:103723000512150D0E9F0512150D769E0512150D2A
:10373300FE3F0000000080FB8F0001005F16870042
:103743000100CB18350004009018250002009418DE
:10375300260002009618270002009818280001008E
:10376300A21829000100A31884000400A4188600ED
:103773000100A8182A000100A9182B000100AA18AB
:103783002C000100AE182D00080042162E00010087
:10379300AF182F000100B01830000100B11831003C
:1037A3000100B218320001004A16330001004B1623
:1037B30034000100B318360001004C163800010034
:1037C300B41839000100AD1883000200C918630062
:1037D30001005C1664000100AB1865000100AC1821
:1037E3006D0001005D16710008003A1666000100C5
:1037F300C81843000100B91844000200BA18450074
:103803000100BC1846000200BD184700080054160A
:1038130048000100BF184B000100C018040001005C
:10382300CC18A1000100CF1837000100CE18880082
:103833000100CD183C0001004D163D000100B518F4
:1038430049000200C118670001005E164D00020026
:10385300C3184E000100C5184F000200C6183E00F1
:103863000100531651000100B61852000100B718A9
:1038730053000100B818540001004E160000000068
:1038830000000000000020018586000001002001E7
:1038930085860000020020018786000003002001C6
:1038A30084860000040042016D800000050042018F
:1038B3007E80000006004201A08000000700200176
:1038C300AB800000100042018F8000001100200136
:1038D3006E0A000000404201A08000000080420107
:1038E300D2810600000010110000070000003033F1
:1038F30000000700100030330000070001402033B0
:1039030000000700024020330000080000002033BD
:1039130000000A000000E23300000A00010018332F
:1039230000000C005500393300000C001C0042332A
:103933000000110004004233000011004300233350
:10394300000011005100101100001100550010116A
:103953000000110067001811000011006F0018111A
:103963000000120055002101000014000E00422245
:1039730000000004000021040000020400002904E8
:1039830000000304000029040000050400002904CA
:1039930000000000000001000037020000370300B0
:1039A300003704000037050026200600000007004A
:1039B300961908001624000000000A0000000B00FE
:1039C3000A240C0298350D0000000E0000370F008A
:1039D300003700000000000000000000000013009A
:1039E3002A25000000001500521E1600521E170162
:1039F3002A251801E21819007C241A007C241B00D4
:103A03000C251C01521B1D01521B1E00A6241F0165
:103A1300823620009E262100D2192200A61E2300F2
:103A2300983500000000000000002601AA232701AA
:103A3300EC262801982329004A262A00DA1A2B02A9
:103A43000A242C0080262D0280262E01BA192F006D
:103A530018193000C42400000000320000003300B5
:103A6300000034000000350000003600000037007D
:103A73000000380000003901521B3A003E263B008B
:103A8300E6230001363601010001020100010301B2
:103A930000010401060605020000070100340801C5
:103AA300000F090401010D0100FF0E0800001702B9
:103AB3000000190100FF1A0100011B0100FE1C0197
:103AC30000081D0200001F01000120010001210266
:103AD30000002301000F240200002601000127013A
:103AE3000008280200FF2A0100072B0102402C01D5
:103AF30000002D0100012E0100012F0100FF300104
:103B03000B1D310800003A0100083B01000F3C0186
:103B130000013D0100FF3E04000042040000460492
:103B230000004A0400004E04000052040000560442
:103B330000005A0400000020202020202020202004
:103B4300282828282820202020202020202020204A
:103B5300202020202020208810101010101010107A
:103B630010101010101010040404040404040404BE
:103B73000410101010101010414141414141010146
:103B83000101010101010101010101010101010122
:103B93000101101010101010424242424242020230
:103BA30002020202020202020202020202020202F2
:103BB300020210101010206A007800D225D825DEEA
:103BC300256C00F0007E2584258A256B00F0009685
:103BD300259C25DE256600F00096259C25DE2567BD
:103BE300001400A825AE25B42569001400BA25C623
:103BF30025C025EE22E803422560255A25640001ED
:103C03000000000000782563000100000000007838
:103C1300256200010000000000782561000100001A
:103C230000000078257000010000000000782501E5
:103C330003710301030103010301030103220302CF
:103C43000301031003000300030003000300030048
:103C530003000342030003240306030003000304D9
:103C6300031203250323032503230304030403008F
:103C7300030003000344030003000323030003655D
:103C83000321003503810300030503000300030040
:103C930003000325032303030071003001600011B7
:103CA3000070003102200350048000100061000006
:103CB30000140063007300720062004300000013ED
:103CC30000060000000000040012000000000000D5
:103CD30000000004000400370037003C02440000E9
:103CE30000000000000000650000003500810000B6
:103CF3000005000000830000000302710230016030
:103D03000211027002010202020202800210026129
:103D1300023A00410063027302720262024302002C
:103D23000213023800000200020402120200020021
:103D3300020002000204020402370037003C02447E
:103D4300020002390000020002650200023502810E
:103D530002000205028202830200020101710101D5
:103D63000101011101010131010101010180011072
:103D73000161013B0014006301730172016201439D
:103D8300010001130106013D013500040112010088
:103D93000100010001000104010401330133013C6E
:103DA30001440132013600000100016501000135C3
:103DB3000081010001050182018301000136000138
:103DC30000060000000F00000000000000000000DB
:103DD30000000003FFFF00000403FFFF0000FFFFDC
:103DE3000FF4010005C4040320000100000B0000D0
:103DF30000000000000003010F00000000000000AD
:103E030000000000000000000000000000000000AF
:103E13000000000000000000000000E2271E28E868
:103E2300271027EE272428EE273028F4271027EE23
:103E3300272428FA27102700281027062810270CE4
:103E43002810271228102718281027000000000028
:103E5300000000000000000000000000000000005F
:103E6300000000000000000000000000000000004F
:103E7300000000000000000A00000002000000042F
:103E830000000008000000100000002000000040B7
:103E9300000000800000000001000000020000009C
:103EA30004000000080000001000000020000000D3
:103EB3004000000000762A1300462A0100762A02F9
:103EC30000EC290300F2290400F8290500FE290665
:103ED300000A2A3000222A33002E2A3400342A1101
:103EE300003A2A1400402A15001C2AFFFF00005143
:103EF30000100000550010000067001800006F005C
:103F03001800000400420000430023000007ECFDFA
:103F1300FDFDECDCDCCCBCACAC9C9C8C7C7C6C6C8C
:103F23005C5C5C4C4C3C3C2C2C1C1C0ABE30028E52
:103F33003005A0300794300C76300D8230FF00003E
:103F430000160F00000B150B020002220F330000B6
:103F53000E5A6967426565416C6C69616E636530D1
:103F63003901030507090B0D0F00020406080A0CAB
:103F73000D140AE5D5C5B5A5A5958585756500011B
:103F830019161816161823030000393D3F373C3C19
:103F9300362C442D00034A49434E181A2505023096
:103FA3003016181920231A1C1E3030301718192107
:103FB300301B1D1F300C0E020B040B0A0708000FE9
:103FC30002040201010101090200BE040AE8030020
:103FD30000FA06E803743F103F0E000903030A04C6
:103FE3000408280C050408220400FF1E0CFF1EC051
:103FF30082C083E9901526F002420174F4120E6424
:104003008A088B09EB5480604D800EEEFAEFFB12A9
:10401300275EEEFAEFFB1221F4901526E0F9122247
:10402300068A0A8B0BAE0AAF0BEE4F60208E828F8F
:1040330083E0641A60D5EEFAEFFB12270AE9F974FC
:10404300FF6960CEEEFAEFFB1221FA80CCAA08E5F5
:10405300096480FB80047A007B0002439374F712A7
:104063000E647AFF0253E274F6120E64E9FEEAFF6D
:104073007A047B001246E9A808A909EA496034EFEB
:104083008A828B83A3A3A3F0EE8A828B83A312403D
:10409300EEE4F0A3F090153312470E700990153338
:1040A300E8F0A3E9803FE0FB8A828B83A3A3A3E02C
:1040B3006F700479008031EAFCEBFD8A828B8312F6
:1040C300470E70E474FF6F700C8C828D831240F581
:1040D300E4F0A38010901533125B739015331240F4
:1040E300F5EAF0A3EBF079010254DAA3F08A828BAC
:1040F30083221266C78882898322C082C083EA1220
:10410300695A3BF583E0FA901533800488828983EA
:104113001259A2601C88828983A3A3A3E0FBEA6BE4
:10412300600574FF6B70E588828983A3A3E0F9803F
:104133000279FF02420174F4120E64EAFEEBFF8A75
:1041430082F583125B7312270AE9F50874FF69701D
:10415300030241F07A197B001221EEEA4B7003024D
:1041630041F08A828B83743412570BA3A3EA24028F
:10417300FCE43BFD74061214668E828F83124D9FFE
:104183001266A28A828B83A3A3A3A3A3A3A3A3ECF4
:10419300F0A3ED124DAFA3A3A3A3A3EA240AFCE467
:1041A3003BFD740C1214668E828F83125C0DC81251
:1041B300695A38F583E0C0E0EA2416F582E43BF55A
:1041C30083D0E0F0EE240CF8E43FF98882F5831203
:1041D30066A6EA2417F582E43BF583ECF0A3EDF041
:1041E30088828983E4F0A3F0A9081221FA790102F5
:1041F3004393C082C083901531125B738000D083D8
:10420300D08202150A74F4120E648A088B09ECFE3C
:10421300EDFF7A081242A67004791080351242D855
:10422300A31242C2740C1218B7126CADA3A3A3A3BA
:10423300126D9F90152B12470E90152B601112468D
:10424300F18003EAFCEB12470970F88C828D83122C
:1042530042B602439374F4120E6489088A09ECFE91
:10426300EDFF7A0A1242A67004791080331242CD10
:10427300E4F0A31242BCE5091242BCA3EEF0A3EFA3
:10428300F090152D12470E90152D60111246F180F6
:1042930003EAFCEB12470970F88C828D831242B655
:1042A3000243937B001222A28A0A8B0BA80AA90B52
:1042B300EA49221266C77900221253D3A3A322E547
:1042C300091253D8EEF0A3EFF0221242D88A828B60
:1042D30083A3A3A3228A828B83E4F01240EEA3A3D9
:1042E300E508F02274F2120E64EAFEEBFF8C088DEF
:1042F300091227708B0DA90DEA4960198A828B83F5
:10430300A3A3A3EEF0A3EF1253CFE508F0A3E509AF
:10431300F0790080027901025B6974F4120E64740F
:10432300F7121620E9FE8518828519837401F0ECD3
:104333007006EDC39406404D74036A4B60477401E5
:104343001215DA880A890B780A12152A7C127D0065
:104353007A007B00EE124398121558E9601CE4F5CD
:104363000AF50B780A12152A74031215EA7402125D
:1043730015E21227B874021215588518828519831D
:10438300E064017004790180027900740912155800
:104393007F0402121AF912277674022274E8120EAD
:1043A3006474FA12162089128A168B178C088D09E9
:1043B3001236CA8A148B15EA4B7005790202452E10
:1043C300AA08AB09A9121236A6E9F50FA2E6401C0A
:1043D3009015311259A26014E82419F582E439F5D5
:1043E30083E064017006E50FD2E6F50F7C067D00DD
:1043F3007900AA18AB191221DC741F1218B7124DD9
:10440300A76009E054FCF0E044018003E054FC128F
:104413006D851259A2602B741E1218B7E0FE8882B4
:104423008983A3121321EEFD74021218B7E054031B
:10443300FCAA08AB09A91212272E7402121558E917
:104443007005790102452E74221218B71259A26021
:1044530012851882851983E04404F074021218B798
:104463001266C374201218B7124DA76005E0440802
:104473008003E054F7F074211218B7124DA76005BA
:10448300E044108003E054EFF074241218B7E0C046
:10449300E074041218B7D0E0F074051218B7EEF008
:1044A3007803851882851983E054046002780574C3
:1044B300251218B7124B3BE82510FEE43511FF1205
:1044C30047DF6063AC0AAD0BAA18AB1912276A74F5
:1044D300271218B7125AF9121526AC10AD11125D36
:1044E30061121558750C1E780C12152E750C297552
:1044F3000D15780C12152A780A12152A8E0C8F0DB9
:10450300780C12152A780812152AA90FAC14AD15C8
:10451300AA16AB171236D67409121558E9FEAA0A61
:10452300AB0B1222A880027E10EEF974068004EE13
:10453300F974021215587F1002121AEEFCEFFDAA4D
:1045430010AB11A90A122734740B2274EA120E64F9
:1045530074FE121620890B8A148B158C0E8D0F7E18
:10456300007F00750A0074181218B7124B3B8011B4
:104573001246FF1227C48B09EE2AFEEF3509FF0509
:104583000A1266AA502EE50A75F006124AF22403AF
:10459300FEE43FFFA3A3E070E60EEE70010F8882F6
:1045A3008983A3A3A3A312470E8882898360C112C0
:1045B300591380C2EEFAEFFB1246E98A0C8B0DEA1F
:1045C3004B70030246DE750A008030A818A91988CB
:1045D300128913781212152A780812152A8A828BE7
:1045E300831246FF1227CA7404121558126C9DE5F4
:1045F3000828F508E50939F509050A1266AA50776E
:10460300E50A75F006A4F8A9F0E51028F582E5118E
:104613001266861246F68A828B83A312533EF012E9
:1046230053A7125339F0E5082403F508500205098E
:1046330088828983E070C2EA2403081253AB1246CE
:10464300F6A38582088583098A828B83A3A3A3A308
:104653001246F18C82F583E582458370030245CED1
:10466300AC08AD09AA82AB8388828983E0F912275B
:104673009A8A088B098082780C12152A8E088F0972
:10468300780812152A74201218B7124B3112152EFE
:10469300E4F508F509780812152A74221218B712DE
:1046A3004B3112152E74221218B7124B3112152EDC
:1046B300750800780812152E750801780812152E52
:1046C300AC0EAD0FAA14AB15A90B12454812155821
:1046D300E9FEAA0CAB0D1222A880027E10EEF9743B
:1046E30002121558802F1222A28A088B0922E0FC9D
:1046F300A3E022E0850882850983F022126D73AA64
:104703000EAB0FA90B22FD8C828D83125B77EA4BD4
:1047130022AA12AB137F0E02121AEEF90247187483
:10472300EC120E64890A8A108B11ECFEEDFF7414EF
:104733001218B712493570030247C5A808A9097CA6
:1047430000800D12491850010B1249485001090C01
:10475300850C82850D83E0FAECC39A40E674016A06
:10476300700AA3E07006750E01750F007808121524
:104773002A780E12152A741C1218B7124912121530
:104783002EE4F50CF50D780C12152A741E1218B7C9
:1047930012491212152E741E1218B712491212154D
:1047A3002E750B00780B12152E750B04780B121552
:1047B3002E12453E121558E9FEAA08AB091222A88B
:1047C30080027E100248FFAA0EAB0F7F0C02121A62
:1047D300850A82850B83E0F91227AC22EEFAEFFB00
:1047E3001222A28A0A8B0BEA4B22F8E4350DF988D0
:1047F30082F583124B21A322851082851183E0F871
:10480300E508C3982274EC120E64890A8A108B118E
:10481300ECFEEDFF74141218B7124904F50875097C
:10482300007402780812175F85080E85090FAA0E17
:10483300AB0F12669E70030248FD7900804AE9F5CA
:10484300127513007402781212175FE50C2512FC1F
:10485300E50D3513FD8C82F583A31257068C828DEB
:1048630083A3125E50F0EC2403FC50010DF5828DFE
:1048730083125E51A3F08C828D83125E50A3A3F04A
:10488300EA2404FA50010B09850C82850D83E0F8B4
:10489300E9C39840A9740168700AA3E07006750E15
:1048A30001750F00780812152A780E12152A741C48
:1048B3001218B712491212152EE4F50CF50D780CE7
:1048C30012152A741E1218B712491212152E741ECD
:1048D3001218B712491212152E750B00780B121508
:1048E3002E750B07780B12152E12453E121558E93B
:1048F300FEAA08AB091222A880027E10EEF9024735
:10490300CE1249082212520D850C82F583E022E073
:10491300F50B780B22EC75F003A4FAABF0E50C2A47
:10492300FAE50D3BFB8A82F583124B4EF0EA240233
:10493300FA2212490875F003A4F50EE5F0F50FAA63
:104943000E126D0A22F5828B83124D03124B47A37D
:10495300A3F0E82403F82274E8120E6474FE12161E
:1049630020124B951218B7124B3B8009EE2402FE1E
:10497300E43FFF05081247FB502FE50875F00D12C1
:104983004AF22404FEE43FFFE070E8A3E070DDEEAA
:104993002405FEE43FFFE82404F50AE439124B0D35
:1049A30060D11247D3EE2980C61247DF7003024A53
:1049B300ED8A0E8B0F7508008018E50C2409FAE4C4
:1049C300350DFB8A82124B1B124B43F08C0E8D0F5D
:1049D30005081247FB4003024A8AE50875F00D12E9
:1049E3004B55AA82AB831247F6F0E50C240212471B
:1049F300ED124B6AA3F0E50E2404F50E5002050FE9
:104A0300850C82850D83E070C7E50E2402FCE43536
:104A13000FFD850E82850F83A3A882A9838A828BCB
:104A230083E07096E50C2404F512E4350DF5138547
:104A33001282124B1BF0E50C2405F516E4350DF537
:104A43001785168212607B124B7F2407F8E4350D1D
:104A5300F98882124B1B124B8DF0E50E2405F50EDF
:104A63005002050F851282851383124B14700302C3
:104A730049D3AC0EAD0FE50C240BF582E4350DF5EF
:104A830083124B290249D3780A12152A8E0C8F0DF3
:104A9300780C12152A74221218B7124B3112152EE4
:104AA300E4F50CF50D780C12152A74241218B712BC
:104AB3004B3112152E74241218B7124B3112152EC6
:104AC300750800780812152E750809780812152E36
:104AD300AC14AD15740B1218B7124B02121558E92A
:104AE300FEAA0AAB0B1222A880027E10024532A452
:104AF300F8A9F0E51028F582E511124C9FEE221279
:104B03005B77A909122734740B22F50B850A82F50A
:104B130083E0F91227A0E922F583124B2122E085D5
:104B23000E82850F8322124D088A0E8B0F22E0F529
:104B3300087808228E828F83E0F510A3E0F5112216
:104B4300124B47221240EF124B4E22A3E088828978
:104B5300832212683885820C85830D124B21F085E0
:104B63000C82850D83A322124B6E22A3F0888289C7
:104B730083A3E0850E82850F83A3A322F08516828B
:104B83008517831253BCF0E50C22A3A3124B6EA32B
:104B9300A322851882851983EAF0A3EBF089098C97
:104BA300148D157E007F00750800741A2274EA12B2
:104BB3000E64890B8A108B118C0E8D0F7E007F0083
:104BC300750A0074161218B71252098003124C6C3E
:104BD300850C82850D831266B040F212669A607E60
:104BE300A808A909750A008003124CA8850C8285C0
:104BF3000D83E0FAE50AC39A40EF780812152A8E6E
:104C03000C8F0D780C12152A741E1218B7124C66ED
:104C130012152EE4F50CF50D780C12152A742012DA
:104C230018B7124C6612152E74201218B7124C6660
:104C330012152E750A00780A12152E750A0A780ABB
:104C430012152EAC0EAD0FAA10AB11A90B124548CD
:104C5300121558E9FEAA08AB091222A880027E1099
:104C630002471DE0F50A780A22E50A75F005A4F863
:104C7300A9F0E50C28F582E50D124C9FA3A3A3121E
:104C83006CB1A3A3E0F91227B28B09EA2403F8E479
:104C93003509F9EE28FEEF39FF050A2239F583A31A
:104CA300A882A98322E50A75F005A4FAABF0124C99
:104CB300F7858214858315124B4F126D8B124D03AA
:104CC300F0E5142402FAE435158A12F5138A82F505
:104CD30083124D03A3F0E82403FCE439FD85148219
:104CE300851583A3A3A3124D088A128B13A812A9B7
:104CF30013050A22E50C2AF582E50D3BF583A32271
:104D0300124B4FA322E0FAA3E0FB851282851383A3
:104D1300E0F912279A2274F6120E6474FE1216201A
:104D2300E9FE740C1218B7124D9F124DA7124DAF26
:104D3300E0C0E074011218B7D0E0F0A818A91988F0
:104D4300088909780812152A750802750900780878
:104D530012152A74161218B7124B3112152E741528
:104D63001218B712132174161218B7124B311215F9
:104D73002E74161218B7124B3112152E75080078BF
:104D83000812152E75080B780812152EEEF9124528
:104D93004812155874021215580254DA126CA88876
:104DA30082F58322E085188285198322F08882891F
:104DB30083A32274F1120E6474EB121620EAFEEB45
:104DC300FFC200EA2420F8E43F8808F5098882F549
:104DD30083C3E09403A3E09400500579010251EAF0
:104DE300901531126DA174021218B7126DA1740ED1
:104DF3001218B7E4F0A3F0740A1218B7E4F0A3F0A2
:104E0300740C1218B7E4F0A3F0EA2422F8E43F8804
:104E13000AF50B8882F5831266A674041218B7AAE2
:104E230082AB831227648A0C8B0DA80CA90D740A1C
:104E33001218B7126DA1850882850983125B73EA84
:104E4300C398F8EB99F9850A82850B83E028F8A3C8
:104E5300E039F9740C1218B71266C374081218B744
:104E6300E090152AF0EE2414F508E43FF5098508CF
:104E730082F583E0F91236CA8A828B83E582458301
:104E8300700C901531E4F0A3F079020251EA12524A
:104E93003D602BEE2404F50AE43FF50BA312132126
:104EA300740B1218B7E0FD74061218B7E05403FC34
:104EB30012524C12272E7402121558E9700C9015D9
:104EC30031E4F0A3F079030251EA12524C1236A6F0
:104ED300E9F50E850A82850B83125B73EAFCEBFD11
:104EE30090152B8004888289831259A27003024F84
:104EF300DD88828983A3A3125209C3EA950CEB953B
:104F03000D40E288828983A3A3A3A3C3E09CA3E00B
:104F13009D40D2E8FCE9FD74041218B7E054077011
:104F23000D74091218B7E0640B7003024FE1E50E2C
:104F3300A2E64003024FE1EE2419F582E43FF58334
:104F4300E06003024FE174021218B7125215707E2B
:104F530074021218B712599D70747C0085088285FB
:104F63000983E0F912279474011218B77401F074DD
:104F7300091218B71251F21218B7E0F50C780C1297
:104F8300152E74071218B7121321750C01780C1221
:104F9300152E74081218B7126858F50C780C1215F0
:104FA3002E74051215DA880C890D780C12152A74E3
:104FB300091218B71252341218B71251FD1218B74A
:104FC3001252231215587C0112524C122794901539
:104FD30031E4F0A3F079050251EA7C007D0074040A
:104FE3001218B7E0F854036003025105E854046053
:104FF300057E8402514474091218B7E0F8C394176C
:105003004003025101E8F50A750B007402780A1295
:10501300175F741E250AF582743E350BF583E493FE
:10502300F8740193F9E849700302510185088285F8
:105033000983E0C0E074101218B7D0E0F0740C12CA
:1050430018B7125B7374111218B7126DA1740A1298
:1050530018B7125B7374131218B7126DA174101280
:1050630015E2888289831210998B09A909740E129B
:1050730018B7126DA1EA49604B74091218B7E0F52D
:10508300087509007402780812175F74202508F563
:1050930082743E3509F583E493F87401938882F5AD
:1050A30083E5824583601274021215E2121099742B
:1050B3000E1218B71259A2600B740E1218B7125BB6
:1050C300731222A874091218B7E0F86054740268C6
:1050D300604F740368604A740668604574086860CA
:1050E30040740C68603B74116860367413686031F7
:1050F300741568602C740B6860277E0080437E8281
:10510300803FEC4D602B8C828D83A3A3A312523D71
:10511300601F74021215E2121099E9FE74FF6E709B
:105123000B901531E4F0A3F0F90251EA74016E70AB
:105133001074041218B7E0540460047E8380027E66
:105143008174021218B7125215707574021218B7CF
:1051530012599D706B74041218B7E0FA5410706002
:1051630074011218B7EEF074091218B71251F21243
:1051730018B7124B3112152E74071218B7121321D8
:10518300750801780812152EEA131313541F6401CE
:105193005401F508780812152E74051215DA8808DB
:1051A3008909780812152A74091218B71252341291
:1051B30018B71251FD1218B7125223121558D20004
:1051C300901531E4F0A3F0EE700479008019748433
:1051D3006EA200700A50047907800C79068008508B
:1051E30004790980027908741512155802590DE0E3
:1051F300851882851983F0740822E02406FAA3E057
:105203003400FB74092212520D22E0F50CA3E0F5E1
:105213000D22125C0DC82415F582E438F583E022D3
:10522300A3E0C812695E38F583E0F91227587407C2
:1052330022126C4F126D6F740922A3A3A3125C0D8B
:105243008882F583E582458322850A82850B831252
:105253005B77850882850983E0F92274F4120E6472
:105263008A088B09ECFEEDFF7C067D007900122194
:10527300DC850882850983E054FCF8A3E0F98E827B
:105283008F83E05403FAE84A850882850983F0A3F3
:10529300E9125347A2E25004D2F08002C2F085081B
:1052A30082850983E054FBF0A2F0E433F50A750B21
:1052B300007402780A12175FE0450A125347A2E30B
:1052C300850882850983E050044408800254F7125C
:1052D3005347A2E45004D2F08002C2F085088285CD
:1052E3000983E054EFF0A2F0E433F50A7404780A7A
:1052F30012175FE0450A125D67850882850983E01E
:10530300540460108E828F83E0FAA3E0F9EA1262FC
:10531300F550010F8E828F83125339A3A31262D5E6
:10532300850882850983A3A3A3A3A3F0EE2402FA2D
:10533300E43FFB02439312533EA322E08508828598
:105343000983A32212570FE02274F7120E648A8294
:105353008B83E054038C828D831253CA54041253FB
:10536300C354081253C35410F88C828D83E048F061
:10537300A3AC82AD838A828B83E054046010125302
:10538300A71253BD124DAF1253B3FC50010D8A82C5
:105393008B83A3A3A31253BC1253CF1253B3FAE4C8
:1053A3003DFB803EEA2402F8E43BF98882F5832240
:1053B3001253BDA3F0EC240222A3E08C828D83223E
:1053C300F88C828D83E0481240EFE0221253D322FF
:1053D3001253D8A322F08A828B83A3A3A3A32212FE
:1053E30027047F0102121AC082C08390152D800406
:1053F3008A828B8312470E60138A828B83A3A3E076
:10540300F8E968600B74FF6870E680047A007B003B
:1054130002420174F0120E648A088B09ECFEEDFF60
:105423001227708A0C8B0DEA4B60787C0080010C8C
:10543300850C82850D83A3A3A3A3A3A3A3E0F8EC08
:10544300C398505FECF50E750F007403780E1217B6
:105453005F850C82850D83A3A3A3A3A3A3A3A3E0CA
:10546300250EF8A3E0350FF98882F583E493FA74E7
:105473000193FBE5086A7003E5096B70B2A3A3E42B
:1054830093FA740193FBEE6A7002EF6B70A17410D0
:105493001218B71266A689838882740812142279B7
:1054A300018002790080031215587F0802121A74D2
:1054B300F6120E641254DF6005125B7080047A00EA
:1054C3007B00801374F6120E641254DF6005125BC6
:1054D3006E80047A007B007F0202121A1227708A00
:1054E300828B83E58245832274F7120E64E9FFEA17
:1054F300FCEBFD90152F8004888289831259A260EA
:105503004688828983A3A3E06F70ED7E0080010E3D
:1055130088828983A3A3A3E0FAEEC39A50DAEE75D7
:10552300F003A4FA85F008AB0888828983A3A3A3B8
:10553300A3E02AFAA3E03BFB8A82F583E06C7003C5
:10554300A3E06D70CA80047A007B000253E574F611
:10555300120E641227888A828B83E5824583600654
:10556300A3A3E0F9800279000254DA74F6120E6400
:10557300ECFF1227888B09A909EA496015EA24027E
:10558300F582E439F583EF6005E0D2E68003E0C2FB
:10559300E6F00254DA74F1120E64EAFEEBFFECFA61
:1055A300EDFBEE4F7003025703EC2402F50CE43BD2
:1055B300F50D8C828D83A3AC82AD838E088F097524
:1055C3000A00E91213D2044142D0564344E256E0A2
:1055D300E29B56E8E94E5621084056094E560A5DAD
:1055E300560B9B56104056184056194E561A5D5688
:1055F3001B9B56204056214E56225D56239B562414
:10560300AC5625B55626BE5627C756284056294EB2
:10561300562A5D562B9B562CAC562DB5562EBE5690
:105623002FC756304056314E56384E56399B563A50
:10563300C756EA9B56F0C756F1F45603578E828F2E
:1056430083125706ECFAEDFB0257031262CE8C82EB
:105653008D83F00A0AAB0D0257038E828F8378087D
:105663001218488A828B83E50812570B78081218A0
:1056730048E5098C828D8312570B780812184874F9
:105683001078081215C1850C82850D83E508F0EAB0
:105693002403FA506B0B80688E828F8312131D12C2
:1056A300225A7404121558805778081215267C055F
:1056B300804678081215267C06803D780812152648
:1056C3007C07803478081215267C08802B78081212
:1056D30015268E828F83E02401FCE43400800F784A
:1056E300081215268E828F831258A1FCE439FD809F
:1056F3000978081215267C107D00125D6112155879
:1057030002590D125E56F02212570F22F08E828F2D
:105713008322C082C083E91213D203202F2D57386E
:105723003A2D57E0E22D5700315779018002790075
:1057330002420174F2120E6474FE121620EAFEEBAA
:10574300FF8C088D091227B285188285198374018D
:10575300F0A3E4F0851882851983E0600C750C01D1
:10576300750D00780079008038750CFF750DFFEA20
:1057730024FFF8EB34FF8028850882850983E0C085
:10578300E0EE28F582EF39F583D0E0F085088285D5
:105793000983A3858208858309E8250CF8E9350D7B
:1057A300F9EAFCEBFDEC24FF1AED34FFFBEC4D7042
:1057B300C77402121558025B69E924F86078146013
:1057C3007914607A14607B24FB606B24F86067149F
:1057D300606814606914606A24FB605A14605B1487
:1057E300605C14605D14605E14605F14606014603C
:1057F30061146042146043146044146045146046AD
:1058030014604714604814604914602A14602B2400
:10581300F9602714602C146039245A60251460221F
:1058230014601F24FA601314601014601524FA60C6
:10583300211460228024790180227902801E790359
:10584300801A79048016790580127906800E79070B
:10585300800A7908800679108002790002150A749B
:10586300F7120E64E9FE74446E600574436E700CA7
:105873008A828B831258A1FAE439801574426E60D0
:105883000574416E700E8A828B83E02401FAE4343E
:1058930000FB80071227ACE9FA7B000253E51246AE
:1058A300F1F9EC24022274F1120E64EAFEEBFFEC30
:1058B3002406F8E43D8808F5098882F58312470E2B
:1058C3007004790180448C828D831259128A0A8B69
:1058D3000B850882850983E0F508A3E085080CF5AC
:1058E3000D750E00780C121526AC0AAD0BEEFAEF0F
:1058F300FB125D61121558740F1218B712524060F3
:1059030007E50AF0A3E50BF079007F0702121AA35B
:10591300A3A3A3E0F91227B22274F0120E6474F861
:10592300121620890A8A088B09ECFEEDFFA818A934
:1059330019880C890D780C12152AA90A1243991299
:105943001558E970047901804C74181218B7125A6B
:1059530068741A1218B712520974061218B712593A
:10596300A2780C601612152A74021215EAAA0EAB5D
:105973000F1227B87402121558801A12152A780EBE
:1059830012152AEEFCEFFDAA08AB09A90A1227CAD1
:10599300740412155874080254AA126C4FA3A3126C
:1059A3006CA8E8492274F0120E6474FE1216208A61
:1059B3000C8B0DECFEEDFF851882851983E4F0A3B3
:1059C300F012277C8A088B09EA4B602FA818A919C3
:1059D300880E890F780E12152AE4F50EF50F780E4E
:1059E30012152A7900EEFCEFFDAA0CAB0D85088297
:1059F3008509831210997404121558851882851924
:105A030083125B7374020254AA74F0120E648A0840
:105A13008B09ECFEEDFF12277C8A0A8B0B741212A2
:105A230018B7125A68E50E450F600A850E82850F76
:105A330083E4F0A3F0EA4B6027780E12152A741260
:105A43001218B71213217901EEFCEFFDAA08AB0976
:105A5300850A82850B8312109974041215588002EB
:105A630079C10254AD126C952274F1120E64ECFEEE
:105A7300EDFF8C82F583A3A3A3A3A3E0A2E1506E61
:105A83001227DCE9F50A7069740F1218B71264085B
:105A93009015271259A26013AC08AD09EEFAEFFB7B
:105AA300E0F5838882121099E9603EE5082403F843
:105AB300E435098808F5098882F583125B738E82C1
:105AC3008F831259128A0C8B0DAC0CAD0D85088295
:105AD300850983125AF91215268E828F83A3125BCE
:105AE3006E125D611215588008750A878003750A66
:105AF30088A90A02590D12520D750E00780C2274F2
:105B0300F2120E648908ECFEEDFF8C82F583A3A3E9
