:020000040000FA
:060000000217FC020A8A4F
:03001300020B4697
:03002B0002157348
:03003300020CD4E8
:03003B00020B9B1A
:03004B0002148715
:030053000209BFE0
:03005B000212DFAF
:0300630002130085
:03006B00020C7A0A
:03007B00020CABC9
:10008300020A1E010020FD000201FE05000000011E
:10009300D01EE21E0000E81EEE1E00000000F41E4B
:1000A3000C1F121F181F00000000000000000102B7
:1000B3000408102040801801FF0D01010401FEFF18
:1000C300000000000000000612FFFFFFFFFFFFFF1C
:1000D30001010104006D15000000E8030000FFFFAB
:1000E300C115E803000064006400B801A0BB0D0063
:1000F300A0BB0D00020200F8FF0705021E04010564
:100103001E02051E020A0A010108080310270280C5
:100113003E0102FEFFE8030A050001FFFF020A1485
:1001230001E002000000C503423F1A51123FF304ED
:10013300B53F0000803EFFFFFF0005030101FF07FD
:100143003C000000009F3B00000000FF000000FF98
:1001530000C082C083E9FA5407F8745B28F582E48F
:100163003418F583E0F879006022EAC4540F54038D
:10017300600814600914600D8012E5808002E59028
:100183005870078007E5A0586002790102027DC01C
:1001930082C08312028240047800800312033AE88B
:1001A300F4FCEB600814601214601C802BEA6005F9
:1001B300E842808023EC5280801EEA6005E842908A
:1001C3008016EC52908011E8C39420500BEA60052E
:1001D300E842A08003EC52A002027DC082C08312D9
:1001E300028240047800800312033AE8F4FCE870CA
:1001F3000302027DEB600814602C146050807BECDA
:1002030052F374016A601274026A601574046A70AE
:1002130003E8428FE842FD806153F7DFEC528F80A1
:10022300F343F72080F6EC52F474016A601274020F
:100233006A601574046A7003E842F6E842FE803A85
:1002430053F7BFEC52F680F343F74080F6E8C394CC
:10025300205027EC52F574016A601274026A60152B
:1002630074046A7003E842F7E842FF800D53F77F96
:10027300EC52F780F343F78080F6D083D08222E9F3
:10028300C4540F5403FB743F59C394302274F812BF
:100293000ED0E9C4540F5403FE743F59C394304045
:1002A300047800800312033AE8F4FBE86077EE6019
:1002B3000814602B14604E806CEB52F352FD7401F2
:1002C3006A600F74026A600F74046A7058E8428FA0
:1002D300805353F7DF800343F720EB528F8046EBC5
:1002E30052F452FE74016A600F74026A600F740460
:1002F3006A7032E842F6802D53F7BF800343F7401C
:10030300EB52F68020E8C39420501AEB44E0FB52F2
:10031300F552FF74016A601274026A601574046A0C
:100323007003E842F77F0102126053F77FEB52F745
:1003330080F343F78080F6E95407FC745B2CF58265
:10034300E43418F583E0F822C082C08312028240AD
:10035300047800800312033AE8F4FCE86038EB60A9
:100363000814601214601C802DEA6005E842FD80C9
:1003730025EC52FD8020EA6005E842FE8018EC522D
:10038300FE8013E8C39420500DEA6005E842FF8025
:100393000574E04C52FF02027DC082C083120282C8
:1003A30040047800800312033AE8F4FCE8603FEB72
:1003B30060081460151460228034EA6005E8428006
:1003C3008003EC5280E842FD8024EA6005E8429015
:1003D3008003EC5290E842FE8014E8C39420500E50
:1003E300EA6005E842A08003EC52A0E842FF020263
:1003F3007D743F59C394305042E9C4540F54036091
:1004030007146013146020227801E8F4FBEA6024E7
:1004130014601814601922740F59C394045004789B
:100423000280E7780480E3780880DFE8428C22E5E5
:100433008C586004EB528C22E8428C2212180C6018
:100443001D12181B7005191919801A121675701FC1
:1004530012169DC37003E66733191919400718185C
:10046300182208080874FFF618F618F618F6221270
:10047300169D60171218C1702192F01218CA7019D4
:10048300501720F014080808090909E7F61819E7B6
:10049300F61819E7F61819E7F6221218CA60E6E803
:1004A30069701F0808E62480F608E436F618547FBE
:1004B300B47F0CE654806007F6E418F618F62218A9
:1004C3001822E9C6CC08C6CD08C6CE08C6CFC0E000
:1004D300E8C0E0EAC0E0EBC0E009E9F809E7FA099F
:1004E300E7FBE6F918E6F8C3EC98ED99EE9AEBC250
:1004F300E7F5F0EFC2E795F0500E600CEBCFFBEAA7
:10050300CEFAE9CDF9E8CCF8EAA2E7D2E7FAEB3381
:10051300FB13F5F0EEA2E7D2E7FEEF33FFC5F013CE
:10052300A2E730E601B313C5F0C3C0E0C0F07F001B
:10053300C39BFB605E9418600F401D14601AD0E0EB
:1005430023F9D0E0F80206208AF0E9486003D2F0EC
:10055300E4AFF0FAF9F8803BEB30E40D89F0EA60A0
:1005630003D2F0E4AFF0F9CAF8EB30E30D88F0EF13
:100573006002D2F0AFF0E4CAC9F8EB54076014FB91
:10058300C3EA13FAE913F9E813F8EF135002D2E0C0
:10059300FFDBEDD0E0C0E030E739C3E49FFFF5F0C7
:1005A300EC98FC42F0ED99FD42F0EE9AFE42F0D059
:1005B300E0F9D0E0F8E5F0607AE923F9EE20E742CC
:1005C300D8028067C3EF33FFEC33FCED33FDEE332A
:1005D300FE80EAEC28FCED39FDEE3AFED0E023F98B
:1005E300D0E0F84002801BC3EE13FEED13FDEC13C5
:1005F300FCEF135002D2E0FF08B800067F7F74FFC0
:10060300802EEF3350178CF020F00260100CBC00EA
:100613000C0DBD00080EBE000408E860DFE933E8F6
:1006230013FFEE2313FE4F4D4C8008E95480FFE483
:10063300FEFDFCEE33EF33F47004FCFD7E80D0E06E
:10064300FBD0E0FAD0E0F8D0E0CFC618CEC618CD84
:10065300C618CCC6F92212180C70041818182212E6
:10066300181B700D74FFF61819F61819F61819F6F9
:1006730022E7548066F61218CA700F1218C170F080
:1006830014F608F608F608F680D11218C1700CF6B5
:1006930008F608768008E6447F80EC1216A0700CFA
:1006A30012167860BFE65480F6E480BB12167870A9
:1006B3000519191980A5E869700C763F187680181A
:1006C300F618F6E8F922E6CDC0E018ECC0E0E63310
:1006D300CD33CDD313F6E719FCE7191933CC33C364
:1006E300947F400ECD9D502408E65480F6E418F61E
:1006F300800FF4043D14501408E6447FF618768006
:10070300E418F618F6D0E0FCD0E0FD22CCD313CCED
:10071300FD18E4C6CBC0E018E4C6CAC0E00808ED83
:1007230008C633E613F618E433C675F003C3CA9755
:10073300CA09CB97CB199C40047D08802EBD0003CA
:1007430002080216B6FF050606081618C3CA33CAFE
:10075300CB33CB33CA27CA09CB37CB193CC37D086C
:10076300803E187D0820E75CC633C6CA33CACB3344
:10077300CB33DDF1D5F0EB30E77BCA97CA09CB97D2
:100783004ACB199C406F4B7025E620E02180661808
:100793007D08C3CA97CA09CB97CB199CD3C633C666
:1007A300CA33CACB33CB3350C9DDE7D5F0E1D3E449
:1007B300C636C608C636C608C636C608C636C618FE
:1007C30018188031C3CA97CA09CB97CB199CB34079
:1007D30097C633C6CA33CACB33CB33DD34D5F02EF9
:1007E300C6A2E0C640C8CA27CA09CB37194A70BE99
:1007F300CB3CB480B90808E63308E633601F181809
:1008030018D0E0FAD0E0FBD0E0FCD0E0FD22187D68
:1008130008CA27CA09CB37CB193CD3808013F618F3
:10082300E4B67F11F618B6FF0EF618C60470D208A8
:1008330008768080CAF618F618F680C50012180CE0
:10084300604F12181B6012E7548066F6121675701B
:10085300111218C1703B090909F4F618F618F618B5
:10086300F62212169D70151218CA08080860EAE6E7
:10087300447FF618768018E4F618F6221218CA6038
:10088300161218C17012E4F608F608F608E654804A
:10089300F609090918181822EAC0E0EBC0E0ECC019
:1008A300E0EDC0E0E687F0A4FBACF008E687F0A437
:1008B3002CFCE435F0FA1809E687F0A42C4B60020F
:1008C3007401CA35F0FCE433FB09E687F0D2F7A4E0
:1008D3002CCB35F0FC1908E687F0A42BCC35F0FBC4
:1008E300E433FD0819E687F0D2E7A42C4ACB35F0B0
:1008F300CD3400FC09E687F0D2E7A42DCC35F0FD1A
:10090300E433FA0918E687F0D2F7A42CCD35F0CA00
:100913003400FC08E687F0D2E7D2F7A42ACC35F0FE
:100923007A7E20E70B0ACB33CBCD33CDCC33CC331C
:10093300CB3350147004ED30E00ED2F1E4CD3DCD55
:10094300CC3CCC3B5005DA05C2F1EB547FC63308EF
:10095300E63392F0FBE73309E733C39A502D2B704C
:10096300190C0D4C4D70151806E608C333700D2095
:10097300F10AA2F013F6E418800B4024E4F630F0F9
:1009830002768018F618F618F68024D33B1450101C
:1009930074FFA2F013F6187680E418F618F6800FA9
:1009A300A2F013F618E63303F618ECF618EDF6D0BA
:1009B300E0FDD0E0FCD0E0FBD0E0FA22C0E074F12F
:1009C300120F36A2AFE433F509D2AF85A708AFA162
:1009D300EF5508FE74105E6006121BB275A1EF742A
:1009E300085E6008121BB875A1F78024EFA2E0929D
:1009F300F0E508A2E082F05017906198E0F89005C6
:100A03006CE0C398A2D265D0335002E8F075A1FE22
:100A1300E509A2E092AF7F02020F95C0E074F212E3
:100A23000F36A2AFE433FED2AF9061A4E0F8759B1A
:100A330000E59158540860087591F7121C00802353
:100A4300E59158541060087591EF121C068014E567
:100A530091A2E092F0E8A2E082F05007E0C2E0F059
:100A6300121D5C9061A3E0F8E5E9585404600E128E
:100A73001D3275E9FB906193E0A2E640F2EEA2E03D
:100A830092AF7F01020F95C0E074F2120F36A2AF4E
:100A9300E433FED2AF9061A5E0F8E5BF585404609B
:100AA3000675BFFB121D7480D4C3E498F8E499F96A
:100AB300120AED8026C3E49AFAE49BFBE920E7E9F6
:100AC300120AEDE498F8E499F922C3E498F8E4995A
:100AD300F9120AEDE498F8E499F9C3E49AFAE49B6D
:100AE300FB22EB20E7CFE920E7E0B90010BB0008C9
:100AF300E88AF084F8AAF022E4FBC8FA22EB702219
:100B03007B10C833C8C933C9335007C39AC3DBF258
:100B130080069A50012ADBEAC833F4C8C933F4C902
:100B2300FA2275F008E4C833C8C933C933C99AC96E
:100B33009B5004C92AC93BD5F0ECFBC833F4C8E485
:100B4300C9FA22C0E0C0D0E8C0E0E9C0E0C082C07A
:100B530083A8C1E8C0E09004D9E0F8745828F5826E
:100B6300E43404F583D0E0F09004D8E0F8A3E0681F
:100B73007006E5959004DBF09004D9E004F0C3948B
:100B8300804002E4F0A374C6F0D083D082D0E0F9B1
:100B9300D0E0F8D0D0D0E032C0E0C0D0E8C0E0E987
:100BA300C0E0C082C08390055CE0F8A3E0687008F1
:100BB300539AFBA374018022C2E990055CE0F874A8
:100BC3000128F074DC28F582E43404F583E0F5C1F0
:100BD30090055CE0C394804002E4F080AC120C2BDF
:100BE30030F039120C708034120C2B20F01430E7E3
:100BF3002B74FFFCFBFA747F8022E4FCFBFA748005
:100C0300801AB48008BC00F2BB00EF800F50EBF9F0
:100C1300E4C39AFAE49BFBE49CFCE499C6CC18C6B3
:100C2300CB18C6CA18C6F922E4C9C608CAC608CB77
:100C3300C6D3330308CCC63392F0C3947F402E94BB
:100C4300184019C9B90704CACBCC225025C309CA15
:100C530033CACB33CBCC33CC33D9F422F4600DC9B4
:100C6300CCC313CB13CBCA13CAD9F6CC22E4FCFBF7
:100C7300FA2214FCFBFA22C0E074F2120F36A2AF80
:100C8300E433FED2AF900712E05589600FE589FA8D
:100C93007900122032900712E0F45289C2C5EEA205
:100CA300E092AF7F01020F95C0E074F2120F36A2FB
:100CB300AFE433FED2AF900713E0558A600FE58AA5
:100CC300FA7901122032900713E0F4528AC2EB80C2
:100CD300CDC0E074F2120F36A2AFE433FED2AF9070
:100CE3000714E0558B600FE58BFA790212203290DE
:100CF3000714E0F4528BC2E880A4080808EAC0E0B5
:100D0300EBC0E086F0E7A4FA180986F0E7A42AFA14
:100D1300180986F0E7A42AFA180986F0E7A42AFA44
:100D23001986F0E7A4FBE5F02AFA190886F0E7A490
:100D33002BFBE5F03AFA190886F0E7A42BFBE5F064
:100D43003AFA18180986F0E7A4C5F02BFBE43AFA3F
:100D53001908E7C5F0C6A426F6E5F03BFBE43AFA2A
:100D63001886F0E7A4F6E5F00826F6E43B08F6E477
:100D73003A08F6D0E0FBD0E0FA22080808E630E7AC
:100D8300111216D9120D95080808C64480C6181802
:100D93001822181818E9799EC608CAC608CBC608CF
:100DA300CCC6C370207996CACBCC7019798ECBCCC4
:100DB30070137986CC700EF9802ACA33CACB33CB31
:100DC300CC33CC331930E7F2CCCBCA335014700494
:100DD300EA30E00DE4CA3ACACB3BCBCC3CCC500260
:100DE30009C3E913C6CC182313C6CB18C6CA18C641
:100DF300F922E4CFC0E0E4CEC0E0E4CDC0E0E4CC2F
:100E0300C0E075F020E626F608E633F608E633F68A
:100E130008E633F6181818EC33FCED33FDEE33FE19
:100E2300EF33FFC3EC9709ED9709EE9709EF971995
:100E33001919400FFFEC97FC09ED97FD09EE97FE9A
:100E4300191906D5F0BFECF709EDF709EEF709EF2D
:100E5300F7191919D0E0FCD0E0FDD0E0FED0E0FF97
:100E6300222518C582C0E0E51934FFC583C0E0E53B
:100E730018C3958224F810AF0885831985821880DA
:100E830008858319858218D2AFCEF0A3E520F0A39D
:100E93007808E608F0A3DEFAEFF0A3E58124FAF878
:100EA300E608F0A3E608F0A3E608F0A30808E608BE
:100EB300F0A3E608F0A315811581D0E0FED0E0F899
:100EC300158115811581E8C0E0EEC0E0222518C523
:100ED30082C0E0E51934FFC583C0E0E518C39582FD
:100EE30024F910AF08858319858218800885831932
:100EF300858218D2AFCEF0A3E520F0A37808E608E8
:100F0300F0A3DEFAEFF0A3E58124FBF8E608F0A3F3
:100F1300E608F0A30808E608F0A3E608F0A31581A5
:100F23001581D0E0FED0E0F815811581E8C0E0EE30
:100F3300C0E022C0D02518C582C0E0E51934FFC542
:100F430083C0E0E518C3958224F310AF08858319A5
:100F53008582188008858319858218D2AFC8F0A3CB
:100F6300E9F0A3EAF0A3EBF0A37908E709F0A3D82B
:100F7300FAECF0A3EDF0A3EEF0A3EFF0A3D0E0F0D2
:100F8300A3D0E0F0A3D0E0F0A3E520F0A3E5F0F0D8
:100F9300A322851983851882E0C0E0A3E0F9A3E0CA
:100FA300FAA3E0FBA37808E0F608A3DFFAE0FCA3CA
:100FB300E0FDA3E0FEA3E0FFA3E0C0E0A3E0C0E008
:100FC300A3E0F5D0A3E0F520A3E0A3F5F010AF086C
:100FD3008583198582188008858319858218D2AF85
:100FE300D082D083D0E0F8D0E0321216DC18181883
:100FF300120DF51217AB191919221217AB1919197A
:10100300080808E618181820E7E0120DF51216DC98
:1010130018181822090909E719191920E7DC080823
:1010230008E618181820E703020DF51216DC181845
:1010330018120DF51216DC1818181217AB19191916
:10104300221218ACB90003021083E4900401783033
:1010530079158002F0A3D8FCD9FA7A307B18900076
:101063008678CF79018015E493A3AD82AE838A821B
:101073008B83F0A3AA82AB838D828E83D8E9D9E7D1
:101083007582797583FD74061215047582E2758382
:10109300367400121504E4731075F0108E1A8F1B4A
:1010A30085821F85831E851882851983E0CEA3E080
:1010B300CF851F82851E83EBC9EAC8EDCBECCAC37B
:1010C300E833C8E933C9EA33CAEB33CBC3EA9EF545
:1010D3001DEB9FF51CB35004AB1CAA1DEC33CCEDE8
:1010E30033CDD5F0DAAE1AAF1B2212180C601C12E6
:1010F300181B60171218CA70071218C17001D32287
:10110300C0D01218C17006D0D0B322C32233D0D0BE
:10111300501430E0F6C3E7960809E7960809E79606
:101123000809E796B32220E0D5E6970809E6970871
:1011330009E6970809E697B322D083D082ECC0E092
:10114300EDC0E0E493A3FCE493A3FDED4C600D122A
:1011530012A0EC24FFFCED34FFFD80EFE493A3FC2D
:10116300E493A3FDED4C600D1213A7EC24FFFCEDFB
:1011730034FFFD80EFD0E0FDD0E0FCE493A3C0E0BA
:10118300E493C0E02212180C601B12181B601612A5
:1011930018CA70071218C1600CB322C0D01218C14C
:1011A3007005D0D022C32233D0D0501330E0EBC32C
:1011B300E7960809E7960809E7960809E7962220C3
:1011C300E0E4E6970809E6970809E6970809E69731
:1011D30022D083D082E9C0E0E493A3C386F0C5F0B4
:1011E30095F0F908E493A386F0C5F095F0700BE44D
:1011F30093A3C3994005E9048002A3E475F002A414
:101203002582F582E5F03583F583D0E0F9E493A3F5
:10121300C0E0E493C0E022851983851882E0A3FE31
:10122300E0A3F5207808E0A3F608DFFAE0A3FFE0E7
:10123300A3C0E0E0A3C0E0E0A3C0E0E0A3C0E0E01F
:10124300A3C0E010AF0885821885831980088582C2
:1012530018858319D2AFD083D08202150A851983EA
:10126300851882E0A3FEE0A3F5207808E0A3F60842
:10127300DFFAE0A3FFE0A3C0E0E0A3C0E0E0A3C087
:10128300E0E0A3C0E010AF088582188583198008C9
:10129300858218858319D2AFD083D08222C0E0C360
:1012A300E49396087401939618400FE493667008CC
:1012B30008740193661870007019A3A3C3E493968E
:1012C300087401939618A3A3400DD0E0D0E0D0E0BA
:1012D300021178A3A3A3A3A3A3D0E022C0E074F2D6
:1012E300120F36C2D9901878E0C39400A2D265D009
:1012F300334005E0F91223CE7F01020F95C0E0745D
:10130300F2120F36C2DC90187AE0F9C39400A2D22D
:1013130065D03340031223CE80DE7404800474024C
:101323008000CCC0E0EDC0E0E518C39CCCAD195003
:10133300011D10AF068C188D1980068C188D19D2DB
:10134300AF121466D0E0FDD0E0FC2274028000CC22
:10135300C0E0EDC0E0E518C39CCCAD1950011D10F1
:10136300AF068C188D1980068C188D19D2AF121404
:1013730022D0E0FDD0E0FC2212180C602512181BCD
:1013830060201218CA70030218C1080808E76670C3
:10139300101819E766700A1819E76670041819E738
:1013A3006622F422C0E0C0F088F0E4936670080877
:1013B30074019366187000A8F0A3A3700BD0F0D04B
:1013C300E0D0E0D0E0021178A3A3D0F0D0E022D0A7
:1013D30083D082CCC0E0E493A360061214E51470BA
:1013E300FAE493A3600612160A1470FAD0E0FCE440
:1013F30093A3C0E0E493C0E022C008C3E096F508DD
:1014030008A3E096420808A3E096420808A3E096E2
:101413004208A2D265D033E5087001D3D00822CAAE
:10142300C0E0E493A3C582CCC582C583CDC583F058
:10143300A3C582CCC582C583CDC583DAE5D0E0CA16
:1014430022A2E792D65002F40430F70663F0FF05B8
:10145300F0B3400384800384F40430D60563F0FFC3
:1014630005F022CAC0E0E0A3C582CCC582C583CD06
:10147300C583F0A3C582CCC582C583CDC583DAE617
:10148300D0E0CA22C0E0C0D0C082C08375AF009054
:101493000750E02401F0A3E03400F0D083D082D0E1
:1014A300D0D0E0327009080808226016181818C650
:1014B300C333C608C633C608C633C608C633C6D543
:1014C300E0EA22C008C3E096F50808A3E0964208C4
:1014D30008A3E096420808A3E09645087001D3D01C
:1014E3000822C0E0E493A3D39C5010E493A3C39CCD
:1014F300400AD0E0D0E0D0E00213EFA3A3A3D0E0F2
:1015030022C09FF59FE473D09F22D083D082C09FD7
:10151300E493C0E0740193C0E0740293F59F2274D6
:1015230004800A74038006740280027401C0E0F42C
:101533000412153DD0E0121857222518F58210AF7A
:1015430008F518400C15198008F51840021519D232
:10155300AF8519832200C0D0251810AF08F51850A5
:101563000C05198008F51850020519D2AFD0D02206
:10157300C0E0C0D0E8C0E0A8A8D2AFC2C7E8A2E7E5
:1015830092AFD0E0F8D0D0D0E032BB0102E722C066
:1015930082C08389828A83BB0003E08002E493D004
:1015A30083D082226017080808C6A2E713C618C6AC
:1015B30013C618C613C618C613C6D5E0E9226016AB
:1015C300080808C6C313C618C613C618C613C61818
:1015D300C613C6D5E0EA222518F8E43519F9222501
:1015E30018FAE43519FB222518FCE43519FD22C34A
:1015F300E0C696F608A3E0C696F608A3E0C696F6FC
:1016030008A3E0C696F622C0E0E493A36C7009D069
:10161300E0D0E0D0E00213EFA3A3D0E0222518101E
:10162300AF08F518400C15198008F5184002151974
:10163300D2AF22C3E09608A3E09608A3E09608A3DE
:10164300E096A2D265D03322E76670100809E766F8
:10165300700A0809E76670040809E76622E0667005
:101663001008A3E066700A08A3E066700408A3E00C
:101673006622181818E60846087009E62608700559
:10168300E633F4220822C3E4939608740193960880
:1016930074029396087403939622191919E709475C
:1016A300097009E727097005E733F4220922C3E02B
:1016B30096F008A3E096F008A3E096F008A3E0965E
:1016C300F022C3E697F60809E697F60809E697F6C7
:1016D3000809E697F622181818E4C396F608E49664
:1016E300F608E496F608E496F622E026F608A3E068
:1016F30036F608A3E036F608A3E036F622E627F628
:101703000809E637F60809E637F60809E637F62248
:10171300E493F608740193F608740293F6087403CD
:1017230093F622E657F60809E657F60809E657F650
:101733000809E657F622E056F608A3E056F608A392
:10174300E056F608A3E056F622E647F60809E64710
:10175300F60809E647F60809E647F6227004226010
:101763000D18C6C333C608C633C6D5E0F41822E63F
:1017730067F60809E667F60809E667F60809E66703
:10178300F622E026F008A3E036F008A3E036F008DE
:10179300A3E036F022E056F008A3E056F008A3E0F9
:1017A30056F008A3E056F022E4C397F709E497F74D
:1017B30009E497F709E497F722600D08C6A2E71337
:1017C300C618C613C6D5E0F322C6F4C608C6F4C6C7
:1017D30008C6F4C608C6F4C622C3E09608A3E0967A
:1017E30008A3E09608A3E09622C3E7960809E796C4
:1017F3000809E7960809E7962275D00075813F75B9
:10180300180175190400021044E6084608C313467C
:1018130008336002E633F422E7094709C313470993
:10182300336002E733F422600C08C6C313C618C63C
:1018330013C6D5E0F422E6F008A3E6F008A3E6F029
:1018430008A3E6F022E0F608A3E0F608A3E0F60812
:10185300A3E0F622CAC0E0E6F0A308DAFAD0E0FA81
:1018630022E0FCA3E0FDA3E0FEA3E0FF22EAF0A355
:10187300EBF0A3ECF0A3EDF022E0FAA3E0FBA3E08E
:10188300FCA3E0FD22E8F0A3E9F0A3EAF0A3EBF068
:1018930022ECF0A3EDF0A3EEF0A3EFF022E0F8A327
:1018A300E0F9A3E0FAA3E0FB22E5C754F84401F50D
:1018B300C77901222518F582E43519F58322E72734
:1018C30019471947194722E626184618461846228B
:1018D300C2AF75D69F0200002212150D7FC20512FA
:1018E300150D879B0712150D4F9E0512150DA19E11
:1018F3000512150DFD9E0512150D8B9F0512150D75
:10190300E79F0512150D21A30512150D4FA505120D
:10191300150D77A60512150D8EEC0612150DF8ECB4
:101923000612150D19ED0612150D57ED0612150DBC
:101933009CED0612150DC2ED0612150DCBED061228
:10194300150D79EE0612150DDDEE0612150DBA957D
:101953000712150D459B0712150D609B0712150DF8
:10196300B1BB0412150D90BC0412150D90BD0412E9
:10197300150D64BE0412150D46C10412150D98C24F
:101983000412150D4EC30412150D29C40412150DAE
:10199300A3C50412150D33DE0512150D41DE051224
:1019A300150D52DF0512150D02E00512150D8AE122
:1019B3000512150D4AE40512150DD0E60612150D94
:1019C3005AE70612150D65E80612150D81E8061291
:1019D300150DE8940712150DF9940712150D979537
:1019E3000712150DA2950712150DF27F0012150DA2
:1019F300769C0712150DB7970712150DC797071297
:101A0300150DDC970712150D42980712150DE69276
:101A13000712150D69930712150DCF930712150DB4
:101A230079FB0612150DB4FB0612150D10FC0612F8
:101A3300150D68FC0612150DEFFC0612150D2BFD96
:101A43000612150D899C0712150D999C0712150D89
:101A5300F9D20612150D5CD30612150DABD306127F
:101A6300150DD8D30612150D2ED40612150DC0FF71
:101A73000412150D8FF40612150DD9F40612150D67
:101A83006FF50612150DF5F50612150D26F606125D
:101A9300150D3EF60612150DB2F60612150DC8F613
:101AA3000612150DDBF60612150DE5F60612150DD9
:101AB300EDC60412150D39CC0412150D6BCC0412AE
:101AC300150D97CC0412150D3FCD0412150D35D00D
:101AD3000412150D00800512150D65800512150DF4
:101AE30015810512150DE2810512150D38830512B6
:101AF300150D22840512150D29850512150D09876B
:101B03000512150D3C870512150DA6870512150D37
:101B1300CD870512150D33890512150DA5890512FB
:101B2300150DDA890512150DEE890512150D648A56
:101B33000512150D5CB10512150D02B40512150D34
:101B43006AB50512150DF1B70512150D58AB06123E
:101B5300150D84AB0612150DF5AD0612150D35AE38
:101B63000612150D75AE0612150D89AE0612150D6A
:101B7300A2AE0612150D93AF0612150D38B006125C
:101B8300150D4CB00612150D4B8B0712150D6F8BEF
:101B93000712150D888B0712150DBA8B0712150D39
:101BA300EA8B0712150D178C0712150D798C071286
:101BB300150D888C0712150D928C0712150D9F8C2D
:101BC3000712150D64EF0612150D84EF0612150D9D
:101BD300C3EF0612150DDEEF0612150DFDEF06120B
:101BE300150D63F00612150D6CF00612150DC9F0F4
:101BF3000612150DEDF00612150DAEF10612150DB8
:101C0300BBF10612150DCCF10612150DA8FF051236
:101C1300150DC0FF0512150DECFF0512150D8DFBFB
:101C23000112150DE1FC0112150DEFFC0112150D4A
:101C330002FD0112150D17FD0112150D2CFD0112E8
:101C4300150D3FFD0112150DB3FD0112150D18FE03
:101C53000112150DBAFE0112150D7EFF0112150DAD
:101C63008EFF0112150D9DFF0112150D66FF061261
:101C7300150D8AFF0612150DB2FF0612150DDAFFB8
:101C83000612150D56F90612150D7DF90612150DDE
:101C93009BF90612150D0EFA0612150DC9E306126D
:101CA300150DE2E30612150DEEE30612150D02E41F
:101CB3000612150D20E40612150D2AE40612150D61
:101CC30034E40612150D47E40612150DD1E406128D
:101CD300150D46E50612150D7AE50612150DC8E534
:101CE3000612150D15E60612150D30E60612150D32
:101CF3003AE60612150D60E60612150DC5E6061244
:101D0300150D71960712150D93960712150D469C26
:101D13000712150DDEA70512150D08A80512150DDE
:101D230025A80512150D38A80512150D4EA8051284
:101D3300150DACA80512150DE4A80512150DDCACA4
:101D43000512150D21AE0512150D54AE0512150D14
:101D5300B7AE0512150D30B00512150D58B00512AA
:101D6300150D6DB00512150D7DB00512150DC1B021
:101D73000512150D1CB10512150D2CB10512150D0B
:101D830096900712150DB0900712150DD8900712F3
:101D9300150DF1900712150D15910712150D3391BD
:101DA3000712150D4A910712150D78910712150D9B
:101DB30093910712150DBD9A0712150DEED6061253
:101DC300150DFED60612150D03D80612150D35D8BE
:101DD3000612150D5BD80612150D7ED80612150DC9
:101DE30095D80612150DCFD80612150D34D9061243
:101DF300150D76D90612150DB5D90612150DE6D9AE
:101E03000612150D1DDA0612150D6BEC0512150DD4
:101E130041ED0512150D6CED0512150D89ED051239
:101E2300150D84EE0512150DC6EE0512150D34EFD2
:101E33000512150D86EF0512150DF5EF0512150D9B
:101E43002CF10512150D29F20512150DCBCA061238
:101E5300150D20CB0612150DA0CB0612150DB3CB15
:101E63000612150DDACB0612150D7DCC0612150DD3
:101E73005ECD0612150DEFCC0512150D1ACD051208
:101E8300150DE5CD0512150D2CCE0512150DBDCE84
:101E93000512150D36D20512150DEED30512150DCB
:101EA3000D9A0312150D4D9A0312150D4C9C031236
:101EB300150D729C0312150D5D9F0312150D99A04C
:101EC3000312150D03A40312150D6DA40312150DB2
:101ED30007A50312150D5AA50312150DC2A503126A
:101EE300150D12A60312150D44A60312150D47A6D0
:101EF3000312150D57A60312150D69A60312150D2E
:101F0300B4A60312150D71A80312150DDEA8031252
:101F1300150D31A90312150DCDA90312150D59AADB
:101F23000312150D5DAC0312150DFCAD0312150D57
:101F3300C3AF0312150DA7B00312150D5BB2031245
:101F4300150DE4890712150DFE890712150D408A38
:101F53000712150D6E8A0712150D888A0712150DC3
:101F6300A18A0712150DE38A0712150D188B0712A4
:101F7300150DE1850612150D12860612150D6686DE
:101F83000612150D36870612150D68870612150DF4
:101F930095870612150DE6870612150D1088061291
:101FA300150D34880612150D5A880612150DDC8896
:101FB3000612150D66890612150D97890612150D61
:101FC300DD890612150DFB890612150D1F8A0612EF
:101FD300150D3F8A0612150D758A0612150DD48A42
:101FE3000612150DF68A0612150D558B0612150DE0
:101FF300648B0612150D9D8B0612150DFEC305127B
:10200300150D38C40512150D77C50512150DA3C698
:102013000512150DC8CC0512150DF29B0612150DF0
:10202300F99C0612150D3A9D0612150DA99D06126F
:10203300150DE57E0012150D567F0012150DBB7FA1
:102043000012150D7E8A0512150D9D8B0512150DB7
:10205300AB8C0512150DF28D0512150D4C8E051264
:10206300150D918E0512150D9F8E0512150DCF8E30
:102073000512150D658F0512150DC1900512150D6D
:10208300CD910512150D65930512150DB294051228
:10209300150D75DA0612150DD0DA0612150D09DBCA
:1020A3000612150DF1DC0612150D3BA60612150DD1
:1020B30080A60612150DB6A60612150DDDA706128B
:1020C300150D82A90612150DEFA90612150D3AABCF
:1020D3000612150DEBF50312150D08F70312150D76
:1020E3007EF70312150D77F80312150DC3F80312CB
:1020F300150D3EFC0312150D1EFD0312150D73FD88
:102103000312150DC8FD0312150DA8FE0312150DBC
:1021130080880712150DBD880712150DEC8807126C
:10212300150D00890712150D97B90612150DA9BAD9
:102133000612150D8CBB0612150DADBB0612150D3F
:1021430076BC0612150D18BD0612150D49BD0612F3
:10215300150DC9BD0612150D27F30512150D89F3CB
:102163000512150D1DF40512150DACF50512150D0F
:10217300EDF80512150D03F90512150DA98C0712BB
:10218300150DBB8C0712150DCF8D0712150DD28DB2
:102193000712150D508F0712150D868F0712150D97
:1021A300A08F0712150DE28F0712150DF28F07127C
:1021B300150D8C900712150D70E50512150D7AE5B6
:1021C3000512150DB4E50512150D1DE60512150DC5
:1021D3003AE60512150DDCE60512150DE5E60512C6
:1021E300150D2AE70512150D53E70512150D60E7C6
:1021F3000512150DD1E70512150D5CE80512150D35
:10220300AAE80512150DE8E80512150D4DE90512AA
:10221300150D70E90512150DE7E90512150D3EEAD6
:102223000512150D79EA0512150DAEEA0512150D05
:10223300C0EA0512150DD2EA0512150DF1EA0512D1
:10224300150DFAEA0512150DB5EB0512150D01EC86
:102253000512150D3FEC0512150D60B00612150D94
:10226300A0B10612150DC3B10612150DD4B1061295
:10227300150DD3B30612150DF3B30612150D2B9CD2
:102283000712150DBFE00612150D03E10612150D19
:102293004BE10612150D31E30612150DC0E30612CC
:1022A300150D4A990712150D00800412150D24818E
:1022B3000412150D5E810412150D08830412150D09
:1022C30032830412150DA7850412150DE785041238
:1022D300150D7D870412150D1A880412150D6C88CF
:1022E3000412150D0F890412150D47890412150DDB
:1022F30089890412150DF88A0412150D468C0412EF
:10230300150D778E0412150DA58E0412150DCC8EA6
:102313000412150DD58E0412150D258F0412150DFB
:10232300B78F0412150DE6920412150D699304126A
:10233300150D609C0712150DF5CE0612150D0BCF6A
:102343000612150DAFCF0612150DEECF0612150DA1
:102353000BD00612150D3CD00612150D89D00612AE
:10236300150DBCD00612150DF7D00612150DECD2C3
:102373000612150DC5F90512150D6BFB0512150D8A
:10238300ACFC0512150DC4FC0512150DF1BD0612AA
:10239300150D28BF0612150D87C00612150DB1D5F0
:1023A3000512150DD8D60512150DD7D70512150D23
:1023B3002DD90512150D52DA0512150D2CDB051258
:1023C300150D00800712150DAE800712150D146D43
:1023D3000012150DD96D0012150DE46D0012150DC7
:1023E300956E0012150DF46E0012150DEB700012B0
:1023F300150D5B710012150D64730012150D9D739D
:102403000012150D40760012150D68760012150D99
:10241300EA760012150D65770012150DEF7800129C
:10242300150D79790012150DF7790012150DC37E7C
:102433000012150D4E910612150D75910612150D0C
:10244300D0930612150DF7930612150D4C94061230
:10245300150D7E950612150DFA950612150DFAF156
:102463000612150D12F20612150D5DF30612150D67
:1024730064F30612150D8DF30612150DE89307127A
:10248300150D47940712150D85940712150DC69463
:102493000712150DC2960612150DE8960612150DB4
:1024A30028980612150D1D990612150D449906124A
:1024B300150DDD990612150D319A0612150D4C9B5B
:1024C3000612150D00800612150DA2800612150DB9
:1024D300C2810612150D14830612150DC884061247
:1024E300150DE8D10412150D3CD20412150D66D357
:1024F3000412150D92D40412150D80D50412150D76
:102503001CD80412150DD3D90412150D1EDA0412AA
:10251300150D2CDC0412150D3AFC0212150D8DFC61
:102523000212150D10FD0212150D9CFF0212150D5E
:10253300FF8D0712150D798E0712150D948E071254
:10254300150DDB810712150DF0820712150D588347
:102553000712150DAF830712150DFA830712150D18
:102563004A840712150D65840712150DF2860712AA
:10257300150D4D870712150D49880712150DF8F62D
:102583000612150D61F70612150DD7F70612150D74
:10259300FFF70612150D90A10412150D01A20412E6
:1025A300150D68A20412150DECA20412150DC8A492
:1025B3000412150DBCA50412150D27A60412150D42
:1025C30030A70412150D72A80412150D29A90412BF
:1025D300150D74A90412150DDEA90412150D2FAAE9
:1025E3000412150DBFAB0412150DF9AB0412150D32
:1025F300D3980712150D1D990712150DAC8B0612F2
:10260300150D098C0612150DE18C0612150D508D52
:102613000612150D748D0612150D5B8E0612150D1F
:10262300BB8E0612150D6C8F0612150DE38F061265
:10263300150DAC9B0712150DBF9B0712150DC69107
:102643000712150DD5910712150D35920712150DA9
:10265300D09B0712150DD69B0712150DDC9B071295
:10266300150D68E70412150DD3E70412150DAEE836
:102673000412150DE7E90412150D56EA0412150D9F
:1026830004EB0412150DE4EB0412150DD3EC041244
:10269300150DF6ED0412150D5EF00412150D5F3FD6
:1026A3000012150D6B3F0012150DCD3F0012150DD5
:1026B300D73F0012150D6A400012150DA6400012F7
:1026C300150D62410012150D75410012150D8EBDD9
:1026D3000312150D54420012150D8A420012150DF6
:1026E3000C430012150DBB440012150D8F4600124A
:1026F300150D75470012150DC7480012150D1D4B1A
:102703000012150D864C0012150D234D0012150DE8
:10271300CB510012150DB9520012150D575300126B
:10272300150D83530012150D1F540012150D34544B
:102733000012150D58540012150DBE540012150D3C
:10274300DB540012150D05550012150D82560012AB
:10275300150DA3560012150D29570012150DCF574D
:102763000012150D19C10512150D89580012150D0A
:1027730015590012150D79590012150DD95900126A
:10278300150D6F5A0012150DEA5A0012150D1D5B37
:102793000012150D7F5B0012150DE15C0012150D83
:1027A300515D0012150D005E0012150D565F0012EB
:1027B300150DEE5F0012150D5A600012150D9D6286
:1027C3000012150D29640012150D54640012150D25
:1027D3003A660012150DD0670012150DD968001264
:1027E300150DB6930412150D6D940412150D749501
:1027F3000412150DF2950412150D34970412150DDC
:1028030055970412150D0D980412150DB89804125E
:10281300150D989C0412150DB49E0412150D1BA0E2
:102823000412150D019B0712150D00800312150DDF
:1028330058800312150DDE800312150DF08103126B
:10284300150D3D820312150D23830312150D3A83D3
:102853000312150D8C830312150DC4830312150D7A
:10286300D7830312150D2D840312150D86840312CD
:10287300150D9E840312150D0E870312150DA587E2
:102883000312150DCF870312150D07880312150DBB
:102893002D8A0312150D738A0312150DBD8A0312B7
:1028A300150D918B0312150DD28B0312150DF58B9C
:1028B3000312150D3C8C0312150D5E8C0312150DBE
:1028C300DF8C0312150D6C8D0312150DC68D0312CB
:1028D300150D0E8E0312150D838F0312150DFF9127
:1028E3000312150D8C920312150DB8930312150DD7
:1028F300F3930312150DC0940312150D00950312E3
:10290300150D03950312150D0D950312150D209545
:102913000312150DA1950312150DD7950312150D6D
:1029230003960312150D2A960312150D4E960312E4
:10293300150DE5960312150DFE960312150D31972D
:102943000312150D51970312150D8E970312150DD2
:10295300C5970312150DC4980312150DF7990312A9
:10296300150D4C980712150D58980712150D9E98C2
:102973000712150DEF7F0012150D38CC0312150D3C
:102983005BCC0312150D32CD0312150D7BCD031253
:10299300150DD3CD0312150D2DCE0312150D79CEC2
:1029A3000312150DEFCE0312150D7DCF0312150D76
:1029B300F5CF0312150D38D00312150D15D40312DC
:1029C300150D5CD60312150D8FD60312150D0DD7F9
:1029D3000312150D92D70312150D6AD80312150DA4
:1029E30094D90312150D7FDA0312150D5CDB031264
:1029F300150D98DC0312150D3CDE0312150DCEDE0A
:102A03000312150DD5E00312150DABEC0212150DD3
:102A13004BED0212150DB5ED0212150D5CEE02120F
:102A2300150DC0EE0212150DF3EF0212150D19F17B
:102A33000212150D92F10212150D6AF30212150D11
:102A43000AF40212150DADF40212150D0CF5021263
:102A5300150DC7F50212150D8DF70212150D30F97C
:102A63000212150DDCF90212150DF1FA0212150D01
:102A730065E10312150DDDE10312150D25E20312C5
:102A8300150D69E20312150DB2E20312150DFCE2F6
:102A93000312150D31E30312150DAFE30312150DE8
:102AA30009E40312150D62E50312150DEBE503129C
:102AB300150D47E60312150D61E60312150D88E6A1
:102AC3000312150DE0E60312150D4AE80312150D66
:102AD30069E80312150D91E90312150D0EEA0312AD
:102AE300150D7BEA0312150DDDEA0312150D8DEBAF
:102AF3000312150D5FED0312150D4AEE0312150DAA
:102B030044EF0312150D4AF00312150D66F103127B
:102B1300150D74F10312150D4DF20312150DEDF29F
:102B23000312150D31F30312150D46F30312150DA0
:102B330057F40312150DFAF40312150D52F503128F
:102B4300150DC0E90612150DF9EA0612150DB6EBBF
:102B53000612150D1AEC0612150D9BDD0612150D46
:102B6300B6DD0612150DFADD0612150D20DE06126E
:102B7300150D46DE0612150D5EDE0612150DC1DEBD
:102B83000612150DD6DE0612150DF8DF0612150D09
:102B930001E00612150D0AE00612150D13E00612E8
:102BA300150D1DE00612150D49C20612150D29C695
:102BB3000612150D2EC60612150D30C60612150D7A
:102BC300ECFD0612150DEF9B0712150DBC990712AC
:102BD300150D779A0712150DD3FF0212150D97C61F
:102BE3000612150D21970712150D4B970712150D98
:102BF30066850712150DD6FF0112150D0D9C0712E0
:102C0300150D1D9A0712150DA8FF0312150D85FC4E
:102C13000412150D5CD70112150DB3D70112150D52
:102C23001FD80112150DABD80112150D61D9011270
:102C3300150DA9D90112150DC2D90112150DE5D92A
:102C43000112150D07DA0112150D45DA0112150DE2
:102C530094DA0112150DBFDA0112150D1DDB0112F5
:102C6300150DC4DB0112150D6CDC0112150DE8DC2A
:102C73000112150DB5DD0112150D01DE0112150D41
:102C830089DE0112150DC2DE0112150D53DF01128B
:102C9300150D64DF0112150DD6DF0112150D6FE05E
:102CA3000112150DD9E00112150DC9E10112150D1F
:102CB300EEE10112150DEBE20112150DF8E201121E
:102CC300150D01E30112150DEAE40112150D06E6D7
:102CD3000112150D97E60112150D08E70112150DE6
:102CE300E2E80112150DADEC0112150DC1EC011254
:102CF300150DD1EC0112150DDBEC0112150DE4ECF1
:102D03000112150DEDEC0112150DF7EC0112150D65
:102D130026ED0112150D54ED0112150D5FED011293
:102D2300150D83ED0112150DA7ED0112150D19EE09
:102D33000112150D62EE0112150D7EEE0112150D35
:102D4300EFEE0112150D3BEF0112150D84EF011289
:102D5300150DC2EF0112150D43F00112150D0EF200
:102D63000112150DADF20112150D75F30112150DBA
:102D730001F60112150D56F60112150D7EF601121C
:102D8300150DB1F70112150DF6F70112150D4BF8DC
:102D93000112150DF9F80112150D9EF90112150D09
:102DA300D3F90112150D73FA0112150DEFFA011281
:102DB300150D33860112150D65860112150D9986C1
:102DC3000112150D4D880112150D21890112150DE2
:102DD30080890112150D968A0112150DE28A0112DE
:102DE300150D7F8D0112150DF48F0112150D4091F4
:102DF3000112150DD8910112150DE4910112150D53
:102E03002D920112150D60920112150DEC92011213
:102E1300150DFE930112150D3F950112150D3E96EA
:102E23000112150D68960112150DD3960112150D99
:102E33002C970112150D9F970112150DD5990112AB
:102E4300150D5B9B0112150D469C0112150D949DEA
:102E53000112150DCC9F0112150DC3A20112150D00
:102E6300D2A20112150D66A30112150D11A40112B0
:102E7300150D54A40112150D9DA40112150DEDA4F9
:102E83000112150D5AA50112150DC6A50112150D36
:102E9300E2A50112150D11A60112150D50A601127E
:102EA300150D38A70112150DE7A70112150D5EAA1E
:102EB3000112150D90AB0112150D5FAC0112150D2A
:102EC300E1AC0112150D2DB10112150D5CB101120A
:102ED300150DB7B10112150DEAB10112150D45B269
:102EE3000112150D61B20112150DC2B20112150DB9
:102EF30012B30112150DC1B30112150D84B40112E1
:102F0300150D4CB50112150D98B70112150D24B905
:102F13000112150D7BBA0112150D97BB0112150D88
:102F23009ABB0112150DC9BB0112150DB8BD0112D3
:102F3300150D81BE0112150DC2BE0112150D18C06B
:102F43000112150D8EC00112150DC1C00112150D10
:102F530025C10112150D46C30112150DA5C301129A
:102F6300150D7BC40112150D8FC40112150DA3C4D9
:102F73000112150DD0C40112150D00C50112150D56
:102F8300A4C60112150DA1C70112150DEFC7011239
:102F9300150D16C80112150DF1C80112150D97C9AB
:102FA3000112150D1DCB0112150D64CB0112150D68
:102FB300D1CB0112150D26CD0112150DCFCD011266
:102FC300150D03CE0112150D1BCE0112150DBECE2C
:102FD3000112150D3AD10112150DE2D20112150D90
:102FE30006D30112150D24D30112150DF0D30112CE
:102FF300150D3ED70112150D00800212150D3280FA
:103003000212150DB2840212150D01850212150D5F
:1030130047850212150DEA850212150D4F8602121D
:10302300150D93860212150DFA870212150D2689C6
:103033000212150D238D0212150DA28D0212150D0C
:10304300C88E0212150D2B8F0212150D77900212E6
:10305300150D0F930212150D9C930212150DA693D5
:103063000212150DCE930212150D96940212150D30
:103073002B950212150D54950212150D819502120E
:10308300150DD6970212150DA3980212150DE2988D
:103093000212150D64990212150D0F9A0212150DE5
:1030A300419A0212150D8C9A0212150DC59A02123D
:1030B300150D149B0212150D709B0212150DF29B38
:1030C3000212150D579C0212150DCF9C0212150DFD
:1030D300789E0212150D709F0212150DB1A00212F7
:1030E300150D05A40212150D61A60212150D1AA7DE
:1030F3000212150D62A70212150D43A90212150D36
:103103007EA90212150D87A90212150D90A90212AC
:10311300150D9BA90212150DBAA90212150D6DAA60
:103123000212150DCAAA0212150DD4AA0212150D08
:10313300DEAA0212150D2AAB0212150D72AB021292
:10314300150D76AC0212150D0FAD0212150DD6AD8D
:103153000212150D00AF0212150D2BB00212150D40
:1031630021B10212150D39B10212150D6DB1021202
:10317300150D8BB10212150DD3B10212150D0CB240
:103183000212150DC3B20212150D84B30212150DEE
:10319300F7B30212150D73B40212150D0FB5021217
:1031A300150D35B60212150DF1B60212150D91B7B4
:1031B3000212150D7EB80212150DD6B80212150DA6
:1031C3009CB90212150DBFB90212150DD4BA021221
:1031D300150D1FBB0212150D7BBB0212150DE3BBB0
:1031E3000212150D07BC0212150D2FBC0212150D8C
:1031F30074BC0212150D98BC0212150D1CBD0212EF
:10320300150D05BE0212150D4ABE0212150D73BE31
:103213000212150D11BF0212150D7CBF0212150DFE
:103223008ABF0212150DB6BF0212150D97C0021206
:10323300150D05F20412150D3DF20412150D5EF283
:103243000412150DA0F20412150D04F30412150D4A
:103253000EF30412150D1EF30412150D55F304128B
:10326300150DFEF60412150DC6F80412150DAAFA73
:103273000412150D4CFB0412150DD6FB0412150D8B
:1032830087C20212150DEBC20212150D49C30212B9
:10329300150D94C30212150DAFC30212150DD6C33B
:1032A3000212150DF3C30212150DFFC30212150D01
:1032B30090C50212150DA9C50212150D25C60212DD
:1032C300150D38C60212150D48C60212150DECC6AF
:1032D3000212150D58C80212150D6BC90212150DF5
:1032E3000BCA0212150D15CA0212150D94CA021249
:1032F300150DA5CA0212150DE4CA0212150D12CB43
:103303000212150DDFCB0212150D36CC0212150D6C
:103313006FCC0212150DC5CC0212150DE3CC0212AF
:10332300150D31CD0212150DFCCD0212150D4ACE2D
:103333000212150D97CE0212150D1ACF0212150D9A
:1033430044CF0212150D7ACF0212150D89CF021246
:10335300150DE8CF0212150D60D00212150DA1D084
:103363000212150DF1D00212150D1CD10212150D0A
:1033730036D10212150D50D10212150D25D20212AB
:10338300150D2FD20212150D6AD20212150D7AD223
:103393000212150D83D20212150DD4D20212150D8D
:1033A300E8D20212150D0AD40212150D1FD402120F
:1033B300150DB2D40212150D26D50212150DCBD55B
:1033C3000212150DD6D50212150D36D70212150DA0
:1033D30052D70212150D9ED70212150D0CD80212E8
:1033E300150D3ED80212150D58D80212150D9AD894
:1033F3000212150DEDDA0212150D85DB0212150D01
:10340300FCDB0212150D59DE0212150D71DE0212DC
:10341300150D74DE0212150D80DE0212150D94DEF9
:103423000212150D9CDE0212150DD3DE0212150DCC
:10343300C7DF0212150D51E00212150DD3E002127F
:10344300150D53E10212150D2AE20212150D4CE27D
:103453000212150DE5E20212150D42E30212150DDB
:1034630045E30212150DB4E30212150D00E5021235
:10347300150D13E60212150D9EE60212150DB1E7A6
:103483000212150D76E80212150DA7E80212150DAA
:10349300CDE80212150DD6E80212150D05E9021248
:1034A300150DB5E90212150D65EA0212150DD8EADC
:1034B3000212150D7BEB0212150DEEEB0212150D28
:1034C3002DEC0212150D76EC0212150D2CBA031217
:1034D300150D31B90312150D9CB80312150D4FB814
:1034E3000312150DCDB70312150D52B70312150DA7
:1034F300D2B60312150D88B60312150D2CB603129E
:10350300150DDBB50312150D9EB50312150D58B538
:103513000312150DAFC00512150D4DC00512150D83
:103523001DB50312150D13B50312150DD6BE0512E5
:10353300150D9FBD0512150DF6B40312150D1EB41E
:103543000312150DA2B30312150D7AB70612150D4A
:10355300A0B60612150D26B60612150D29B50612CC
:10356300150DD8BA0412150DFEB90412150D34B990
:103573000412150DA3B70412150D6CB70412150D23
:103583003EB70412150DF2B60412150D5BB6041204
:10359300150DCBB50412150DA5B50412150D5AB5AD
:1035A3000412150D24B50412150DA7B40412150D3C
:1035B30042B40412150DF1B30412150D19B304121C
:1035C300150D89B20412150D3DB20412150DB8B1D3
:1035D3000412150DA0BC0512150D73B10412150DBF
:1035E30057BC0512150DCEBA0512150DCDCA03121F
:1035F300150DA2C70312150D2AC50312150D18C305
:103603000312150DDCC20312150DD6C10312150DDD
:1036130057B10412150DFFAF0412150DD1AF0412EB
:10362300150D9EAF0412150D7EBF0312150D22AFAB
:103633000412150D79A40612150DDEA20612150D3E
:10364300ECA10612150D0ABF0312150D1AA10612DD
:10365300150D16580012150D1DE70412150DC4E6BD
:103663000412150D8FE60412150D5AE60412150DFA
:1036730026E60412150DB9E50412150DA1E5041291
:10368300150D7CE50412150D4DE20412150D20E015
:103693000412150D20DE0412150DA6DD0412150DFE
:1036A30057DD0412150D11DD0412150DB3DC0412E0
:1036B300150DF79A0512150DCFBD0312150D4A9A74
:1036C3000512150D5B990512150DC1970512150D00
:1036D30084950512150DBD940512150DC541000005
:1036E300000080FB8F0001005E1687000100CA18EE
:1036F300350004008F1825000200931826000200ED
:10370300951827000200971828000100A118290026
:103713000100A21884000400A31886000100A71862
:103723002A000100A8182B000100A9182C00010091
:10373300AD182D00080041162E000100AE182F0011
:103743000100AF1830000100B01831000100B118BA
:10375300320001004916330001004A16340001000B
:10376300B218360001004B1638000100B3183900B7
:103773000100AC1883000200C818630001005B1647
:1037830064000100AA1865000100AB186D00010078
:103793005C1671000800391666000100C718430063
:1037A3000100B81844000200B91845000100BB1815
:1037B30046000200BC1847000800531648000100E9
:1037C300BE184B000100BF1804000100CB18A10074
:1037D3000100CE1837000100CD1888000100CC1875
:1037E3003C0001004C163D000100B41849000200E2
:1037F300C018670001005D164D000200C2184E009C
:103803000100C4184F000200C5183E000100521603
:1038130051000100B51852000100B6185300010011
:10382300B718540001004D1600000000000000000E
:1038330000002001328600000100200132860000D2
:103843000200200130860000030020012D860000C5
:10385300040042016D800000050042017E800000EB
:1038630006004201A080000007002001AB80000099
:10387300100042018F800000110020016D0A00003A
:1038830000404201A080000000804201D281060076
:103893000000101100000700000030330000070093
:1038A3001000303300000700014020330000070000
:1038B30002402033000008000000203300000A000B
:1038C3000000E23300000A000100183300000C007E
:1038D3005500393300000C001C0042330000110076
:1038E30004004233000011004300233300001100A1
:1038F30051001011000011005500101100001100BB
:1039030067001811000011006F0018110000120069
:1039130055002101000014000E00422200000004A3
:103923000000210400000204000029040000030435
:103933000000290400000504000029040000000120
:1039430036360101000102010001030100010401F7
:10395300060605020000070100340801000F0904F0
:1039630001010D0100FF0E080000170200001901FC
:1039730000FF1A0100011B0100FE1C0100081D02CB
:1039830000001F01000120010001210200002301AA
:10399300000F24020000260100012701000828026D
:1039A30000FF2A0100072B0102402C0100002D011A
:1039B30000012E0100012F0100FF30010B1D310812
:1039C30000003A0100083B01000F3C0100013D01EA
:1039D30000FF3E04000042040000460400004A04C5
:1039E30000004E04000052040000560400005A0474
:1039F300000000000001B23602B23603B23604B250
:103A030036051A2006000007901908C82300000095
:103A13000A00000BBC238C4A350D00000EB2360F92
:103A2300B23600000000000000000013DC24000098
:103A33000015461E16461E97DC2498DC18192E2402
:103A43001A2E241BBE249C461B9D461B1E58249FD6
:103A53003436204A2621CC19229A1E234A350000E7
:103A630000000000A69823A79826A8862329F625F8
:103A73002ACE1AABBC232C2C26AD2C26AEB4192F80
:103A830012193076240000003200003300003400A5
:103A930000350000360000370000380000B9461B2F
:103AA3003AEA250020202020202020202028282832
:103AB30028282020202020202020202020202020F3
:103AC300202020208810101010101010101010103B
:103AD300101010100404040404040404040410105B
:103AE30010101010104141414141410101010101F8
:103AF30001010101010101010101010101010110A4
:103B030010101010104242424242420202020202CC
:103B13000202020202020202020202020202021074
:103B2300101010206A00780084258A2590256C00E7
:103B3300F000302536253C256B00F00048254E2546
:103B430090256600F00048254E2590256700140057
:103B53005A2560256625690014006C257825722591
:103B6300EE22E803F42412250C2564000100000072
:103B730000002A2563000100000000002A256200DE
:103B83000100000000002A25610001000000000080
:103B93002A2570000100000000002A25010371039B
:103BA30001030103010301030103220302030103D0
:103BB30010030003000300030003000300030003DA
:103BC3004203000324030603000300030403120358
:103BD3002503230325032303040304030003000332
:103BE30000034403000300032303000365032100D0
:103BF30035038103000305030003000300030003EF
:103C030025032303030071003001600011007000DD
:103C130031022003500480001000610000001400F2
:103C2300630073007200620043000000130006008B
:103C3300000000000400120000000000000000006B
:103C430004000400370037003C0244000000000079
:103C53000000000065000000350081000000050041
:103C630000008300000003027102300160021102B0
:103C730070020102020202028002100261023A0093
:103C830041006302730272026202430200021302E2
:103C930038000002000204021202000200020002C5
:103CA300000204020402370037003C02440200020F
:103CB300390000020002650200023502810200029F
:103CC3000502820283020002010171010101010167
:103CD30011010101310101010101800110016101A3
:103CE3003B0014006301730172016201430100018F
:103CF300130106013D013500040112010001000119
:103D03000001000104010401330133013C014401BA
:103D13003201360000010001650100013500810117
:103D23000001050182018301000136000100060044
:103D330000000F0000000000000000000000000071
:103D430003FFFF00000403FFFF0000FFFF0FF40168
:103D53000005C4040320000100000B000000000064
:103D630000000003010F000000000000000000003D
:103D73000000000000000000000000000000000040
:103D830000000000000000008E27CA279427BC26ED
:103D93009A27D0279A27DC27A027BC269A27D02743
:103DA300A627BC26AC27BC26B227BC26B827BC2630
:103DB300BE27BC26C427BC2600000000000000006C
:103DC30000000000000000000000000000000000F0
:103DD30000000000000000000000000000000000E0
:103DE300000000000A0000000200000004000000C0
:103DF3000800000010000000200000004000000048
:103E03008000000000010000000200000004000028
:103E13000008000000100000002000000040000027
:103E23000000222A1300F2290100222A0200982905
:103E330003009E290400A4290500AA290600B62927
:103E43003000CE293300DA293400E0291100E629B5
:103E53001400EC291500C829FFFF000051001000D1
:103E630000550010000067001800006F00180000E4
:103E73000400420000430023000007ECFDFDFDECBD
:103E8300DCDCCCBCACAC9C9C8C7C7C6C6C5C5C5CEF
:103E93004C4C3C3C2C2C1C1C0A6A30023A30054C1E
:103EA300300740300C22300D2E30FF000000160F7B
:103EB30000000B150B020002220F3300000E5A699B
:103EC30067426565416C6C69616E636530390103F6
:103ED3000507090B0D0F00020406080A0C0D140A4E
:103EE300E5D5C5B5A5A59585857565000119161890
:103EF30016161823030000393D3F373C3C362C444B
:103F03002D00034A49434E181A250502303016186E
:103F13001920231A1C1E30303017181921301B1D8D
:103F23001F300C0E020B040B0A0708000F020402D9
:103F330001010101090200BE040AE8030000FA06B8
:103F4300E803E13E7D3E0E000903030A040408284A
:103F53000C050408220400FF1E0CFF1EC082C08350
:103F6300E9901525F002416E74F4120E648A088BF1
:103F730009EB5480604D800EEEFAEFFB12270AEE38
:103F8300FAEFFB1221E2901525E0F91221F48A0AD7
:103F93008B0BAE0AAF0BEE4F60208E828F83E064F3
:103FA3001A60D5EEFAEFFB1226B6E9F974FF6960E1
:103FB300CEEEFAEFFB1221E880CCAA08E509648073
:103FC300FB80047A007B0002430074F7120E647ACC
:103FD300FF02534F74F6120E64E9FEEAFF7A047B84
:103FE30000124656A808A909EA496034EF8A828B71
:103FF30083A3A3A3F0EE8A828B83A312405BE4F036
:10400300A3F090153212467B7009901532E8F0A3A5
:10401300E9803FE0FB8A828B83A3A3A3E06F700454
:1040230079008031EAFCEBFD8A828B8312467B7038
:10403300E474FF6F700C8C828D83124062E4F0A3F2
:104043008010901532125AE0901532124062EAF055
:10405300A3EBF07901025447A3F08A828B832212E7
:1040630066348882898322C082C083EA1268C73B90
:10407300F583E0FA90153280048882898312590F00
:10408300601C88828983A3A3A3E0FBEA6B600574A9
:10409300FF6B70E588828983A3A3E0F9800279FF2F
:1040A30002416E74F4120E64EAFEEBFF8A82F5831A
:1040B300125AE01226B6E9F50874FF69700302414B
:1040C3005D7A197B001221DCEA4B700302415D8AA1
:1040D300828B837434125678A3A3EA2402FCE43B54
:1040E300FD74061214668E828F83124D0C12660FB6
:1040F3008A828B83A3A3A3A3A3A3A3A3ECF0A3ED1F
:10410300124D1CA3A3A3A3A3EA240AFCE43BFD745E
:104113000C1214668E828F83125B7AC81268C738BA
:10412300F583E0C0E0EA2416F582E43BF583D0E0B2
:10413300F0EE240CF8E43FF98882F583126613EA63
:104143002417F582E43BF583ECF0A3EDF088828934
:1041530083E4F0A3F0A9081221E87901024300C027
:1041630082C083901530125AE08000D083D082023F
:10417300150A74F4120E648A088B09ECFEEDFF7ABB
:1041830008124213700479108035124245A312427B
:104193002F740C1218B7126C1AA3A3A3A3126D0CDD
:1041A30090152A12467B90152A601112465E8003F1
:1041B300EAFCEB12467670F88C828D83124223025E
:1041C300430074F4120E6489088A09ECFEEDFF7A49
:1041D3000A12421370047910803312423AE4F0A3B6
:1041E300124229E509124229A3EEF0A3EFF090153C
:1041F3002C12467B90152C601112465E8003EAFC5C
:10420300EB12467670F88C828D83124223024300B0
:104213007B001222908A0A8B0BA80AA90BEA492277
:10422300126634790022125340A3A322E5091253E4
:1042330045EEF0A3EFF0221242458A828B83A3A3BB
:10424300A3228A828B83E4F012405BA3A3E508F0E8
:104253002274F2120E64EAFEEBFF8C088D0912271A
:104263001C8B0DA90DEA4960198A828B83A3A3A332
:10427300EEF0A3EF12533CE508F0A3E509F0790053
:1042830080027901025AD674F4120E6474F712167E
:1042930020E9FE8518828519837401F0EC7006ED20
:1042A300C39406404D74036A4B604774011215DAD8
:1042B300880A890B780A12152A7C127D007A007B02
:1042C30000EE124305121558E9601CE4F50AF50BDC
:1042D300780A12152A74031215EA74021215E212EF
:1042E30036527402121558851882851983E06401C9
:1042F300700479018002790074091215587F040251
:10430300121AF912272274022274E8120E6474FA44
:1043130012162089128A168B178C088D0912367C87
:104323008A148B15EA4B7005790202449BAA08ABE9
:1043330009A91212273AE9F50FA2E6401C9015309D
:1043430012590F6014E82419F582E439F583E06407
:10435300017006E50FD2E6F50F7C067D007900AA11
:1043630018AB191221CA741F1218B7124D14600921
:10437300E054FCF0E044018003E054FC126CF212C0
:10438300590F602B741E1218B7E0FE88828983A32D
:10439300121321EEFD74021218B7E05403FCAA08AD
:1043A300AB09A9121226DA7402121558E9700579BD
:1043B3000102449B74221218B712590F6012851818
:1043C30082851983E04404F074021218B712663030
:1043D30074201218B7124D146005E044088003E0FE
:1043E30054F7F074211218B7124D146005E044100D
:1043F3008003E054EFF074241218B7E0C0E07404B3
:104403001218B7D0E0F074051218B7EEF0780385F0
:104413001882851983E05404600278057425121804
:10442300B7124AA8E82510FEE43511FF12474C6085
:1044330063AC0AAD0BAA18AB19122716742712180E
:10444300B7125A66121526AC10AD11125CCE1215B6
:1044530058750C1E780C12152E750C28750D1578D1
:104463000C12152A780A12152A8E0C8F0D780C124D
:10447300152A780812152AA90FAC14AD15AA16AB84
:10448300171236887409121558E9FEAA0AAB0B12E3
:10449300229680027E10EEF974068004EEF974020F
:1044A3001215587F1002121AEEFCEFFDAA10AB1181
:1044B300A90A1226E0740B2274EA120E6474FE1227
:1044C3001620890B8A148B158C0E8D0F7E007F00AE
:1044D300750A0074181218B7124AA8801112466C94
:1044E3001227708B09EE2AFEEF3509FF050A1266C3
:1044F30017502EE50A75F006124A5F2403FEE43FC7
:10450300FFA3A3E070E60EEE70010F88828983A3F8
:10451300A3A3A312467B8882898360C1125880803B
:10452300C2EEFAEFFB1246568A0C8B0DEA4B700370
:1045330002464B750A008030A818A91988128913FE
:10454300781212152A780812152A8A828B8312464A
:104553006C1227767404121558126C0AE50828F5B4
:1045630008E50939F509050A1266175077E50A7552
:10457300F006A4F8A9F0E51028F582E5111265F319
:104583001246638A828B83A31252ABF01253141226
:1045930052A6F0E5082403F508500205098882892C
:1045A30083E070C2EA240308125318124663A385FA
:1045B30082088583098A828B83A3A3A3A312465E01
:1045C3008C82F583E5824583700302453BAC08ADDD
:1045D30009AA82AB8388828983E0F91227468A0875
:1045E3008B098082780C12152A8E088F097808129D
:1045F300152A74201218B7124A9E12152EE4F508D4
:10460300F509780812152A74221218B7124A9E1255
:10461300152E74221218B7124A9E12152E75080011
:10462300780812152E750801780812152EAC0EADF8
:104633000FAA14AB15A90B1244B5121558E9FEAA1B
:104643000CAB0D12229680027E10EEF97402121545
:1046530058802F1222908A088B0922E0FCA3E022C3
:10466300E0850882850983F022126CE0AA0EAB0F65
:10467300A90B22FD8C828D83125AE4EA4B22AA12E3
:10468300AB137F0E02121AEEF902468574EC120E7A
:1046930064890A8A108B11ECFEEDFF74141218B7AB
:1046A3001248A27003024732A808A9097C00800DB2
:1046B30012488550010B1248B55001090C850C8234
:1046C300850D83E0FAECC39A40E674016A700AA38D
:1046D300E07006750E01750F00780812152A780E22
:1046E30012152A741C1218B712487F12152EE4F5FE
:1046F3000CF50D780C12152A741E1218B712487F88
:1047030012152E741E1218B712487F12152E750B30
:1047130000780B12152E750B04780B12152E12440C
:10472300AB121558E9FEAA08AB0912229680027E45
:104733001002486CAA0EAB0F7F0C02121A850A8274
:10474300850B83E0F912275822EEFAEFFB12229031
:104753008A0A8B0BEA4B22F8E4350DF98882F5833C
:10476300124A8EA322851082851183E0F8E508C3DF
:10477300982274EC120E64890A8A108B11ECFEEDF8
:10478300FF74141218B7124871F508750900740202
:10479300780812175F85080E85090FAA0EAB0F1252
:1047A300660B700302486A7900804AE9F5127513B3
:1047B300007402781212175FE50C2512FCE50D3523
:1047C30013FD8C82F583A31256738C828D83A312FF
:1047D3005DBDF0EC2403FC50010DF5828D83125D69
:1047E300BEA3F08C828D83125DBDA3A3F0EA2404E3
:1047F300FA50010B09850C82850D83E0F8E9C39813
:1048030040A9740168700AA3E07006750E01750F64
:1048130000780812152A780E12152A741C1218B77C
:1048230012487F12152EE4F50CF50D780C12152A9B
:10483300741E1218B712487F12152E741E1218B761
:1048430012487F12152E750B00780B12152E750B5F
:1048530007780B12152E1244AB121558E9FEAA085D
:10486300AB0912229680027E10EEF902473B1248F2
:10487300752212517A850C82F583E022E0F50B78DC
:104883000B22EC75F003A4FAABF0E50C2AFAE50D64
:104893003BFB8A82F583124ABBF0EA2402FA221216
:1048A300487575F003A4F50EE5F0F50FAA0E126C2A
:1048B3007722F5828B83124C70124AB4A3A3F0E8DB
:1048C3002403F82274E8120E6474FE121620124BAD
:1048D300021218B7124AA88009EE2402FEE43FFF31
:1048E3000508124768502FE50875F00D124A5F243A
:1048F30004FEE43FFFE070E8A3E070DDEE2405FE74
:10490300E43FFFE82404F50AE439124A7A60D1123D
:104913004740EE2980C612474C7003024A5A8A0E5A
:104923008B0F7508008018E50C2409FAE4350DFB9C
:104933008A82124A88124AB0F08C0E8D0F05081233
:10494300476840030249F7E50875F00D124AC2AA09
:1049530082AB83124763F0E50C240212475A124AD2
:10496300D7A3F0E50E2404F50E5002050F850C8243
:10497300850D83E070C7E50E2402FCE4350FFD8549
:104983000E82850F83A3A882A9838A828B83E0701A
:1049930096E50C2404F512E4350DF5138512821205
:1049A3004A88F0E50C2405F516E4350DF517851650
:1049B30082125FE8124AEC2407F8E4350DF9888285
:1049C300124A88124AFAF0E50E2405F50E50020544
:1049D3000F851282851383124A817003024940AC0A
:1049E3000EAD0FE50C240BF582E4350DF583124A69
:1049F30096024940780A12152A8E0C8F0D780C12F4
:104A0300152A74221218B7124A9E12152EE4F50CB9
:104A1300F50D780C12152A74241218B7124A9E1237
:104A2300152E74241218B7124A9E12152E750800FB
:104A3300780812152E750809780812152EAC14ADD6
:104A430015740B1218B7124A6F121558E9FEAA0A09
:104A5300AB0B12229680027E1002449FA4F8A9F0A9
:104A6300E51028F582E511124C0CEE22125AE4A946
:104A7300091226E0740B22F50B850A82F583E0F90F
:104A830012274CE922F583124A8E22E0850E828595
:104A93000F8322124C758A0E8B0F22E0F5087808DB
:104AA300228E828F83E0F510A3E0F51122124AB41F
:104AB3002212405C124ABB22A3E08882898322121D
:104AC30067A585820C85830D124A8EF0850C82853D
:104AD3000D83A322124ADB22A3F088828983A3E0F9
:104AE300850E82850F83A3A322F085168285178303
:104AF300125329F0E50C22A3A3124ADBA3A32285B8
:104B03001882851983EAF0A3EBF089098C148D15BB
:104B13007E007F00750800741A2274EA120E6489FD
:104B23000B8A108B118C0E8D0F7E007F00750A008F
:104B330074161218B71251768003124BD9850C8262
:104B4300850D8312661D40F2126607607EA808A9D0
:104B530009750A008003124C15850C82850D83E0CC
:104B6300FAE50AC39A40EF780812152A8E0C8F0DC6
:104B7300780C12152A741E1218B7124BD312152E65
:104B8300E4F50CF50D780C12152A74201218B712DF
:104B93004BD312152E74201218B7124BD312152EA5
:104BA300750A00780A12152E750A0A780A12152E4C
:104BB300AC0EAD0FAA10AB11A90B1244B5121558C8
:104BC300E9FEAA08AB0912229680027E1002468AE9
:104BD300E0F50A780A22E50A75F005A4F8A9F0E5DC
:104BE3000C28F582E50D124C0CA3A3A3126C1EA393
:104BF300A3E0F912275E8B09EA2403F8E43509F9E7
:104C0300EE28FEEF39FF050A2239F583A3A882A90E
:104C13008322E50A75F005A4FAABF0124C64858291
:104C230014858315124ABC126CF8124C70F0E5140B
:104C33002402FAE435158A12F5138A82F583124C9D
:104C430070A3F0E82403FCE439FD85148285158301
:104C5300A3A3A3124C758A128B13A812A913050AD6
:104C630022E50C2AF582E50D3BF583A322124ABC0B
:104C7300A322E0FAA3E0FB851282851383E0F912F5
:104C830027462274F6120E6474FE121620E9FE748F
:104C93000C1218B7124D0C124D14124D1CE0C0E04B
:104CA30074011218B7D0E0F0A818A9198808890967
:104CB300780812152A750802750900780812152A52
:104CC30074161218B7124A9E12152E74151218B7BD
:104CD30012132174161218B7124A9E12152E741647
:104CE3001218B7124A9E12152E750800780812156D
:104CF3002E75080B780812152EEEF91244B512150D
:104D0300587402121558025447126C158882F583A1
:104D130022E085188285198322F088828983A32261
:104D230074F1120E6474EB121620EAFEEBFFC2005C
:104D3300EA2420F8E43F8808F5098882F583C3E074
:104D43009403A3E094005005790102515790153064
:104D5300126D0E74021218B7126D0E740E1218B77C
:104D6300E4F0A3F0740A1218B7E4F0A3F0740C1281
:104D730018B7E4F0A3F0EA2422F8E43F880AF50B1D
:104D83008882F58312661374041218B7AA82AB8360
:104D93001227108A0C8B0DA80CA90D740A1218B7D0
:104DA300126D0E850882850983125AE0EAC398F8CA
:104DB300EB99F9850A82850B83E028F8A3E039F99A
:104DC300740C1218B712663074081218B7E09015F5
:104DD30029F0EE2414F508E43FF509850882F583EC
:104DE300E0F912367C8A828B83E5824583700C90CE
:104DF3001530E4F0A3F079020251571251AA602B47
:104E0300EE2404F50AE43FF50BA3121321740B12ED
:104E130018B7E0FD74061218B7E05403FC1251B939
:104E23001226DA7402121558E9700C901530E4F06A
:104E3300A3F079030251571251B912273AE9F50E3B
:104E4300850A82850B83125AE0EAFCEBFD90152A52
:104E530080048882898312590F7003024F4A888223
:104E63008983A3A3125176C3EA950CEB950D40E217
:104E730088828983A3A3A3A3C3E09CA3E09D40D21C
:104E8300E8FCE9FD74041218B7E05407700D7409C7
:104E93001218B7E0640B7003024F4EE50EA2E64012
:104EA30003024F4EEE2419F582E43FF583E06003DD
:104EB300024F4E74021218B7125182707E7402129E
:104EC30018B712590A70747C00850882850983E03B
:104ED300F912274074011218B77401F074091218FB
:104EE300B712515F1218B7E0F50C780C12152E7437
:104EF300071218B7121321750C01780C12152E74B2
:104F0300081218B71267C5F50C780C12152E740524
:104F13001215DA880C890D780C12152A74091218E7
:104F2300B71251A11218B712516A1218B712519041
:104F33001215587C011251B9122740901530E4F034
:104F4300A3F079050251577C007D0074041218B751
:104F5300E0F854036003025072E8540460057E8451
:104F63000250B174091218B7E0F8C3941740030252
:104F7300506EE8F50A750B007402780A12175F7415
:104F83008B250AF582743D350BF583E493F87401A0
:104F930093F9E849700302506E850882850983E01E
:104FA300C0E074101218B7D0E0F0740C1218B712E6
:104FB3005AE074111218B7126D0E740A1218B71250
:104FC3005AE074131218B7126D0E74101215E2889A
:104FD3008289831210998B09A909740E1218B712CA
:104FE3006D0EEA49604B74091218B7E0F5087509AC
:104FF300007402780812175F748D2508F582743DDA
:105003003509F583E493F87401938882F583E58287
:105013004583601274021215E2121099740E12186D
:10502300B712590F600B740E1218B7125AE01222FE
:105033009674091218B7E0F86054740268604F74EC
:105043000368604A74066860457408686040740CBD
:1050530068603B7411686036741368603174156856
:10506300602C740B6860277E0080437E82803FEC57
:105073004D602B8C828D83A3A3A31251AA601F744E
:10508300021215E2121099E9FE74FF6E700B90156F
:1050930030E4F0A3F0F902515774016E70107404F8
:1050A3001218B7E0540460047E8380027E81740288
:1050B3001218B7125182707574021218B712590A76
:1050C300706B74041218B7E0FA5410706074011214
:1050D30018B7EEF074091218B712515F1218B7120D
:1050E3004A9E12152E74071218B712132175080160
:1050F300780812152EEA131313541F64015401F593
:1051030008780812152E74051215DA8808890978AB
:105113000812152A74091218B71251A11218B712DE
:10512300516A1218B7125190121558D200901530C7
:10513300E4F0A3F0EE70047900801974846EA20089
:10514300700A50047907800C7906800850047909A5
:1051530080027908741512155802587AE08518826E
:10516300851983F0740822E02406FAA3E03400FBD7
:1051730074092212517A22E0F50CA3E0F50D2212F4
:105183005B7AC82415F582E438F583E022A3E0C8EE
:105193001268CB38F583E0F9122704740722126BE7
:1051A300BC126CDC740922A3A3A3125B7A8882F578
:1051B30083E582458322850A82850B83125AE4851F
:1051C3000882850983E0F92274F4120E648A088B3D
:1051D30009ECFEEDFF7C067D0079001221CA8508EB
:1051E30082850983E054FCF8A3E0F98E828F83E083
:1051F3005403FAE84A850882850983F0A3E9125229
:10520300B4A2E25004D2F08002C2F085088285097C
:1052130083E054FBF0A2F0E433F50A750B0074024B
:10522300780A12175FE0450A1252B4A2E385088296
:10523300850983E050044408800254F71252B4A253
:10524300E45004D2F08002C2F0850882850983E02D
:1052530054EFF0A2F0E433F50A7404780A12175FEE
:10526300E0450A125CD4850882850983E054046012
:10527300108E828F83E0FAA3E0F9EA126262500192
:105283000F8E828F831252A6A3A3126242850882D5
:10529300850983A3A3A3A3A3F0EE2402FAE43FFBAF
:1052A3000243001252ABA322E0850882850983A33F
:1052B3002212567CE02274F7120E648A828B83E0FA
:1052C30054038C828D831253375404125330540881
:1052D3001253305410F88C828D83E048F0A3AC82D3
:1052E300AD838A828B83E0540460101253141253EB
:1052F3002A124D1C125320FC50010D8A828B83A36A
:10530300A3A312532912533C125320FAE43DFB800A
:105313003EEA2402F8E43BF98882F5832212532AF9
:10532300A3F0EC240222A3E08C828D8322F88C82EA
:105333008D83E04812405CE0221253402212534511
:10534300A322F08A828B83A3A3A3A3221226B07F76
:105353000102121AC082C08390152C80048A828BAA
:105363008312467B60138A828B83A3A3E0F8E968E8
:10537300600B74FF6870E680047A007B0002416E64
:1053830074F0120E648A088B09ECFEEDFF12271CE1
:105393008A0C8B0DEA4B60787C0080010C850C82B3
:1053A300850D83A3A3A3A3A3A3A3E0F8ECC3985001
:1053B3005FECF50E750F007403780E12175F850C02
:1053C30082850D83A3A3A3A3A3A3A3A3E0250EF820
:1053D300A3E0350FF98882F583E493FA740193FB14
:1053E300E5086A7003E5096B70B2A3A3E493FA744A
:1053F3000193FBEE6A7002EF6B70A174101218B781
:105403001266138983888274081214227901800238
:10541300790080031215587F0802121A74F6120ECF
:105423006412544C6005125ADD80047A007B0080BC
:105433001374F6120E6412544C6005125ADB800486
:105443007A007B007F0202121A12271C8A828B8346
:10545300E58245832274F7120E64E9FFEAFCEBFD53
:1054630090152E80048882898312590F60468882A2
:105473008983A3A3E06F70ED7E0080010E8882898B
:1054830083A3A3A3E0FAEEC39A50DAEE75F003A464
:10549300FA85F008AB0888828983A3A3A3A3E02A33
:1054A300FAA3E03BFB8A82F583E06C7003A3E06D13
:1054B30070CA80047A007B0002535274F6120E64A1
:1054C3001227348A828B83E58245836006A3A3E097
:1054D300F98002790002544774F6120E64ECFF124D
:1054E30027348B09A909EA496015EA2402F582E405
:1054F30039F583EF6005E0D2E68003E0C2E6F0020F
:10550300544774F1120E64EAFEEBFFECFAEDFBEE86
:105513004F7003025670EC2402F50CE43BF50D8C3E
:10552300828D83A3AC82AD838E088F09750A00E94F
:105533001213D20441423D5643444F56E0E208560B
:10554300E8E9BB552108AD5509BB550ACA550B08F7
:105553005610AD5518AD5519BB551ACA551B0856EB
:1055630020AD5521BB5522CA55230856241956256B
:105573002256262B5627345628AD5529BB552ACA01
:10558300552B08562C19562D22562E2B562F345692
:1055930030AD5531BB5538BB553908563A3456EA08
:1055A3000856F03456F1615670568E828F83125628
:1055B30073ECFAEDFB02567012623B8C828D83F022
:1055C3000A0AAB0D0256708E828F83780812184830
:1055D3008A828B83E5081256787808121848E50901
:1055E3008C828D83125678780812184874107808C4
:1055F3001215C1850C82850D83E508F0EA2403FAB0
:10560300506B0B80688E828F8312131D1222487495
:1056130004121558805778081215267C05804678A1
:10562300081215267C06803D78081215267C078013
:105633003478081215267C08802B78081215268EDC
:10564300828F83E02401FCE43400800F7808121574
:10565300268E828F8312580EFCE439FD8009780868
:105663001215267C107D00125CCE12155802587A52
:10567300125DC3F02212567C22F08E828F8322C0E9
:1056830082C083E91213D203202F9A56383A9A56CE
:10569300E0E29A56009E5679018002790002416E3B
:1056A30074F2120E6474FE121620EAFEEBFF8C08ED
:1056B3008D0912275E8518828519837401F0A3E48E
:1056C300F0851882851983E0600C750C01750D0057
:1056D300780079008038750CFF750DFFEA24FFF818
:1056E300EB34FF8028850882850983E0C0E0EE283B
:1056F300F582EF39F583D0E0F0850882850983A32D
:10570300858208858309E8250CF8E9350DF9EAFC5B
:10571300EBFDEC24FF1AED34FFFBEC4D70C7740274
:10572300121558025AD6E924F86078146079146087
:105733007A14607B24FB606B24F860671460681440
:10574300606914606A24FB605A14605B14605C1423
:10575300605D14605E14605F1460601460611460C7
:105763004214604314604414604514604614604757
:1057730014604814604914602A14602B24F96027CC
:1057830014602C146039245A602514602214601F9D
:1057930024FA601314601014601524FA6021146055
:1057A300228024790180227902801E7903801A796C
:1057B300048016790580127906800E7907800A79AC
:1057C30008800679108002790002150A74F7120E18
:1057D30064E9FE74446E600574436E700C8A828BB8
:1057E3008312580EFAE439801574426E60057441D1
:1057F3006E700E8A828B83E02401FAE43400FB800E
:1058030007122758E9FA7B0002535212465EF9EC5D
:1058130024022274F1120E64EAFEEBFFEC2406F874
:10582300E43D8808F5098882F58312467B70047984
:105833000180448C828D8312587F8A0A8B0B8508E2
:1058430082850983E0F508A3E085080CF50D750E44
:1058530000780C121526AC0AAD0BEEFAEFFB125CC6
:10586300CE121558740F1218B71251AD6007E50A1E
:10587300F0A3E50BF079007F0702121AA3A3A3A3F9
:10588300E0F912275E2274F0120E6474F8121620E7
:10589300890A8A088B09ECFEEDFFA818A919880C60
:1058A300890D780C12152AA90A124306121558E914
:1058B30070047901804C74181218B71259D5741AF0
:1058C3001218B712517674061218B712590F780CC2
:1058D300601612152A74021215EAAA0EAB0F1236BD
:1058E300527402121558801A12152A780E12152AAC
:1058F300EEFCEFFDAA08AB09A90A1227767404127D
:1059030015587408025417126BBCA3A3126C15E844
:10591300492274F0120E6474FE1216208A0C8B0D49
:10592300ECFEEDFF851882851983E4F0A3F01227BE
:10593300288A088B09EA4B602FA818A919880E89B1
:105943000F780E12152AE4F50EF50F780E12152AAC
:105953007900EEFCEFFDAA0CAB0D85088285098367
:105963001210997404121558851882851983125AD6
:10597300E0740202541774F0120E648A088B09EC67
:10598300FEEDFF1227288A0A8B0B74121218B71226
:1059930059D5E50E450F600A850E82850F83E4F025
:1059A300A3F0EA4B6027780E12152A74121218B767
:1059B3001213217901EEFCEFFDAA08AB09850A82D7
:1059C300850B831210997404121558800279C10251
:1059D300541A126C022274F1120E64ECFEEDFF8C69
:1059E30082F583A3A3A3A3A3E0A2E1506E122788A9
:1059F300E9F50A7069740F1218B7126375901526CA
:105A030012590F6013AC08AD09EEFAEFFBE0F58312
:105A13008882121099E9603EE5082403F8E4350909
:105A23008808F5098882F583125AE08E828F8312E3
:105A3300587F8A0C8B0DAC0CAD0D850882850983CC
:105A4300125A661215268E828F83A3125ADB125CBA
:105A5300CE1215588008750A878003750A88A90A2B
:105A630002587A12517A750E00780C2274F2120ED3
:105A7300648908ECFEEDFF8C82F583A3A3A3A3A3A3
:105A8300E0A2E1504C122788E9F97047A9081227D0
:105A9300288A0A8B0BEA4B6034E4F50CF50D780C7D
:105AA30012152A74101218B712132179028E828FDD
:105AB300831266118E828F83125AE0850A82850BC8
:105AC300831210997404121558E9F9800679C1807C
:105AD3000279887F0602121AA3A3A3A3A3125AE48E
:105AE30022E0FAA3E0FB2274F2120E64EAFEEBFF5B
:105AF3008C088D098C828D83A3A3A3A3A3E0A2E5C5
:105B030050141265E7600F7902AC08AD09EEFAEFA5
